{
  "contractName": "DataProviderToken",
  "abi": [
    {
      "inputs": [
        {
          "internalType": "address",
          "name": "dataAccessTokenAddress",
          "type": "address"
        },
        {
          "internalType": "address",
          "name": "_signer",
          "type": "address"
        }
      ],
      "stateMutability": "nonpayable",
      "type": "constructor"
    },
    {
      "anonymous": false,
      "inputs": [
        {
          "indexed": true,
          "internalType": "address",
          "name": "owner",
          "type": "address"
        },
        {
          "indexed": true,
          "internalType": "address",
          "name": "spender",
          "type": "address"
        },
        {
          "indexed": false,
          "internalType": "uint256",
          "name": "value",
          "type": "uint256"
        }
      ],
      "name": "Approval",
      "type": "event"
    },
    {
      "anonymous": false,
      "inputs": [
        {
          "indexed": true,
          "internalType": "uint256",
          "name": "timestamp",
          "type": "uint256"
        },
        {
          "indexed": true,
          "internalType": "address",
          "name": "buyer",
          "type": "address"
        },
        {
          "indexed": false,
          "internalType": "uint256",
          "name": "recordCount",
          "type": "uint256"
        }
      ],
      "name": "Buy",
      "type": "event"
    },
    {
      "anonymous": false,
      "inputs": [
        {
          "indexed": true,
          "internalType": "uint256",
          "name": "timestamp",
          "type": "uint256"
        },
        {
          "indexed": true,
          "internalType": "address",
          "name": "provider",
          "type": "address"
        },
        {
          "indexed": false,
          "internalType": "uint256",
          "name": "recordCount",
          "type": "uint256"
        }
      ],
      "name": "Provided",
      "type": "event"
    },
    {
      "anonymous": false,
      "inputs": [
        {
          "indexed": true,
          "internalType": "uint256",
          "name": "timestamp",
          "type": "uint256"
        },
        {
          "indexed": true,
          "internalType": "address",
          "name": "claimer",
          "type": "address"
        },
        {
          "indexed": false,
          "internalType": "uint256",
          "name": "amount",
          "type": "uint256"
        }
      ],
      "name": "RewardClaimed",
      "type": "event"
    },
    {
      "anonymous": false,
      "inputs": [
        {
          "indexed": true,
          "internalType": "address",
          "name": "from",
          "type": "address"
        },
        {
          "indexed": true,
          "internalType": "address",
          "name": "to",
          "type": "address"
        },
        {
          "indexed": false,
          "internalType": "uint256",
          "name": "value",
          "type": "uint256"
        }
      ],
      "name": "Transfer",
      "type": "event"
    },
    {
      "inputs": [],
      "name": "admin",
      "outputs": [
        {
          "internalType": "address",
          "name": "",
          "type": "address"
        }
      ],
      "stateMutability": "view",
      "type": "function",
      "constant": true
    },
    {
      "inputs": [
        {
          "internalType": "address",
          "name": "owner",
          "type": "address"
        },
        {
          "internalType": "address",
          "name": "spender",
          "type": "address"
        }
      ],
      "name": "allowance",
      "outputs": [
        {
          "internalType": "uint256",
          "name": "",
          "type": "uint256"
        }
      ],
      "stateMutability": "view",
      "type": "function",
      "constant": true
    },
    {
      "inputs": [
        {
          "internalType": "address",
          "name": "spender",
          "type": "address"
        },
        {
          "internalType": "uint256",
          "name": "amount",
          "type": "uint256"
        }
      ],
      "name": "approve",
      "outputs": [
        {
          "internalType": "bool",
          "name": "",
          "type": "bool"
        }
      ],
      "stateMutability": "nonpayable",
      "type": "function"
    },
    {
      "inputs": [
        {
          "internalType": "address",
          "name": "account",
          "type": "address"
        }
      ],
      "name": "balanceOf",
      "outputs": [
        {
          "internalType": "uint256",
          "name": "",
          "type": "uint256"
        }
      ],
      "stateMutability": "view",
      "type": "function",
      "constant": true
    },
    {
      "inputs": [],
      "name": "decimals",
      "outputs": [
        {
          "internalType": "uint8",
          "name": "",
          "type": "uint8"
        }
      ],
      "stateMutability": "view",
      "type": "function",
      "constant": true
    },
    {
      "inputs": [
        {
          "internalType": "address",
          "name": "spender",
          "type": "address"
        },
        {
          "internalType": "uint256",
          "name": "subtractedValue",
          "type": "uint256"
        }
      ],
      "name": "decreaseAllowance",
      "outputs": [
        {
          "internalType": "bool",
          "name": "",
          "type": "bool"
        }
      ],
      "stateMutability": "nonpayable",
      "type": "function"
    },
    {
      "inputs": [
        {
          "internalType": "address",
          "name": "spender",
          "type": "address"
        },
        {
          "internalType": "uint256",
          "name": "addedValue",
          "type": "uint256"
        }
      ],
      "name": "increaseAllowance",
      "outputs": [
        {
          "internalType": "bool",
          "name": "",
          "type": "bool"
        }
      ],
      "stateMutability": "nonpayable",
      "type": "function"
    },
    {
      "inputs": [],
      "name": "name",
      "outputs": [
        {
          "internalType": "string",
          "name": "",
          "type": "string"
        }
      ],
      "stateMutability": "view",
      "type": "function",
      "constant": true
    },
    {
      "inputs": [],
      "name": "symbol",
      "outputs": [
        {
          "internalType": "string",
          "name": "",
          "type": "string"
        }
      ],
      "stateMutability": "view",
      "type": "function",
      "constant": true
    },
    {
      "inputs": [],
      "name": "totalSupply",
      "outputs": [
        {
          "internalType": "uint256",
          "name": "",
          "type": "uint256"
        }
      ],
      "stateMutability": "view",
      "type": "function",
      "constant": true
    },
    {
      "inputs": [
        {
          "internalType": "address",
          "name": "recipient",
          "type": "address"
        },
        {
          "internalType": "uint256",
          "name": "amount",
          "type": "uint256"
        }
      ],
      "name": "transfer",
      "outputs": [
        {
          "internalType": "bool",
          "name": "",
          "type": "bool"
        }
      ],
      "stateMutability": "nonpayable",
      "type": "function"
    },
    {
      "inputs": [
        {
          "internalType": "address",
          "name": "sender",
          "type": "address"
        },
        {
          "internalType": "address",
          "name": "recipient",
          "type": "address"
        },
        {
          "internalType": "uint256",
          "name": "amount",
          "type": "uint256"
        }
      ],
      "name": "transferFrom",
      "outputs": [
        {
          "internalType": "bool",
          "name": "",
          "type": "bool"
        }
      ],
      "stateMutability": "nonpayable",
      "type": "function"
    },
    {
      "inputs": [
        {
          "internalType": "uint256",
          "name": "recordCount",
          "type": "uint256"
        },
        {
          "internalType": "uint256",
          "name": "timestamp",
          "type": "uint256"
        },
        {
          "internalType": "bytes",
          "name": "signature",
          "type": "bytes"
        }
      ],
      "name": "provide",
      "outputs": [],
      "stateMutability": "nonpayable",
      "type": "function"
    },
    {
      "inputs": [
        {
          "internalType": "uint256",
          "name": "recordCount",
          "type": "uint256"
        }
      ],
      "name": "buy",
      "outputs": [],
      "stateMutability": "nonpayable",
      "type": "function"
    },
    {
      "inputs": [],
      "name": "claim",
      "outputs": [],
      "stateMutability": "nonpayable",
      "type": "function"
    },
    {
      "inputs": [],
      "name": "claimOwner",
      "outputs": [],
      "stateMutability": "nonpayable",
      "type": "function"
    },
    {
      "inputs": [],
      "name": "showUnclaimed",
      "outputs": [
        {
          "internalType": "uint256",
          "name": "",
          "type": "uint256"
        }
      ],
      "stateMutability": "view",
      "type": "function",
      "constant": true
    },
    {
      "inputs": [],
      "name": "showUnclaimedOwner",
      "outputs": [
        {
          "internalType": "uint256",
          "name": "",
          "type": "uint256"
        }
      ],
      "stateMutability": "view",
      "type": "function",
      "constant": true
    }
  ],
  "bytecode": "0x60e06040523373ffffffffffffffffffffffffffffffffffffffff1660809073ffffffffffffffffffffffffffffffffffffffff1660601b8152503480156200004757600080fd5b50604051620039053803806200390583398181016040528101906200006d91906200024a565b6040518060400160405280601181526020017f4461746150726f7669646572546f6b656e0000000000000000000000000000008152506040518060400160405280600381526020017f44505400000000000000000000000000000000000000000000000000000000008152508160039080519060200190620000f192919062000183565b5080600490805190602001906200010a92919062000183565b5050508173ffffffffffffffffffffffffffffffffffffffff1660a08173ffffffffffffffffffffffffffffffffffffffff1660601b815250508073ffffffffffffffffffffffffffffffffffffffff1660c08173ffffffffffffffffffffffffffffffffffffffff1660601b81525050505062000349565b8280546200019190620002c5565b90600052602060002090601f016020900481019282620001b5576000855562000201565b82601f10620001d057805160ff191683800117855562000201565b8280016001018555821562000201579182015b8281111562000200578251825591602001919060010190620001e3565b5b50905062000210919062000214565b5090565b5b808211156200022f57600081600090555060010162000215565b5090565b60008151905062000244816200032f565b92915050565b600080604083850312156200026457620002636200032a565b5b6000620002748582860162000233565b9250506020620002878582860162000233565b9150509250929050565b60006200029e82620002a5565b9050919050565b600073ffffffffffffffffffffffffffffffffffffffff82169050919050565b60006002820490506001821680620002de57607f821691505b60208210811415620002f557620002f4620002fb565b5b50919050565b7f4e487b7100000000000000000000000000000000000000000000000000000000600052602260045260246000fd5b600080fd5b6200033a8162000291565b81146200034657600080fd5b50565b60805160601c60a05160601c60c05160601c613552620003b3600039600061180301526000818161068901528181610a1001528181610e3c01528181610f2701526110130152600081816105fb015281816106c501528181610b12015261137001526135526000f3fe608060405234801561001057600080fd5b50600436106101165760003560e01c8063569eb39a116100a2578063a9059cbb11610071578063a9059cbb146102d1578063d96a094a14610301578063dd62ed3e1461031d578063e305c4311461034d578063f851a4401461036b57610116565b8063569eb39a1461023557806370a082311461025357806395d89b4114610283578063a457c2d7146102a157610116565b8063313ce567116100e9578063313ce567146101b757806339509351146101d55780633bd1adec14610205578063499d7a921461020f5780634e71d92d1461022b57610116565b806306fdde031461011b578063095ea7b31461013957806318160ddd1461016957806323b872dd14610187575b600080fd5b610123610389565b6040516101309190612876565b60405180910390f35b610153600480360381019061014e91906121e9565b61041b565b6040516101609190612816565b60405180910390f35b610171610439565b60405161017e9190612b18565b60405180910390f35b6101a1600480360381019061019c9190612196565b610443565b6040516101ae9190612816565b60405180910390f35b6101bf610544565b6040516101cc9190612b33565b60405180910390f35b6101ef60048036038101906101ea91906121e9565b61054d565b6040516101fc9190612816565b60405180910390f35b61020d6105f9565b005b610229600480360381019061022491906122b0565b6107b2565b005b610233610903565b005b61023d610b0e565b60405161024a9190612b18565b60405180910390f35b61026d60048036038101906102689190612129565b610ba6565b60405161027a9190612b18565b60405180910390f35b61028b610bee565b6040516102989190612876565b60405180910390f35b6102bb60048036038101906102b691906121e9565b610c80565b6040516102c89190612816565b60405180910390f35b6102eb60048036038101906102e691906121e9565b610d74565b6040516102f89190612816565b60405180910390f35b61031b60048036038101906103169190612256565b610d92565b005b61033760048036038101906103329190612156565b6112a0565b6040516103449190612b18565b60405180910390f35b610355611327565b6040516103629190612b18565b60405180910390f35b61037361136e565b6040516103809190612772565b60405180910390f35b60606003805461039890612dce565b80601f01602080910402602001604051908101604052809291908181526020018280546103c490612dce565b80156104115780601f106103e657610100808354040283529160200191610411565b820191906000526020600020905b8154815290600101906020018083116103f457829003601f168201915b5050505050905090565b600061042f610428611392565b848461139a565b6001905092915050565b6000600254905090565b6000610450848484611565565b6000600160008673ffffffffffffffffffffffffffffffffffffffff1673ffffffffffffffffffffffffffffffffffffffff168152602001908152602001600020600061049b611392565b73ffffffffffffffffffffffffffffffffffffffff1673ffffffffffffffffffffffffffffffffffffffff1681526020019081526020016000205490508281101561051b576040517f08c379a0000000000000000000000000000000000000000000000000000000008152600401610512906129d8565b60405180910390fd5b61053885610527611392565b85846105339190612cf9565b61139a565b60019150509392505050565b60006012905090565b60006105ef61055a611392565b848460016000610568611392565b73ffffffffffffffffffffffffffffffffffffffff1673ffffffffffffffffffffffffffffffffffffffff16815260200190815260200160002060008873ffffffffffffffffffffffffffffffffffffffff1673ffffffffffffffffffffffffffffffffffffffff168152602001908152602001600020546105ea9190612be1565b61139a565b6001905092915050565b7f000000000000000000000000000000000000000000000000000000000000000073ffffffffffffffffffffffffffffffffffffffff163373ffffffffffffffffffffffffffffffffffffffff1614610687576040517f08c379a000000000000000000000000000000000000000000000000000000000815260040161067e90612a18565b60405180910390fd5b7f000000000000000000000000000000000000000000000000000000000000000073ffffffffffffffffffffffffffffffffffffffff1663a9059cbb7f00000000000000000000000000000000000000000000000000000000000000006008546040518363ffffffff1660e01b81526004016107049291906127ed565b602060405180830381600087803b15801561071e57600080fd5b505af1158015610732573d6000803e3d6000fd5b505050506040513d601f19601f820116820180604052508101906107569190612229565b503373ffffffffffffffffffffffffffffffffffffffff16427f24b5efa61dd1cfc659205a97fb8ed868f3cb8c81922bab2b96423e5de1de2cb76008546040516107a09190612b18565b60405180910390a36000600881905550565b60006107c0848433856117e4565b905080610802576040517f08c379a00000000000000000000000000000000000000000000000000000000081526004016107f9906129b8565b60405180910390fd5b60098260405161081291906126f8565b908152602001604051809103902060009054906101000a900460ff161561086e576040517f08c379a000000000000000000000000000000000000000000000000000000000815260040161086590612998565b60405180910390fd5b6108783385611865565b600160098360405161088a91906126f8565b908152602001604051809103902060006101000a81548160ff0219169083151502179055503373ffffffffffffffffffffffffffffffffffffffff16427ecd5a384f351d1c4f493087f7aa99325def324b1f8ea0c302b3e04dedd003eb866040516108f59190612b18565b60405180910390a350505050565b6000600760003373ffffffffffffffffffffffffffffffffffffffff1673ffffffffffffffffffffffffffffffffffffffff1681526020019081526020016000205411610985576040517f08c379a000000000000000000000000000000000000000000000000000000000815260040161097c90612898565b60405180910390fd5b6000600760003373ffffffffffffffffffffffffffffffffffffffff1673ffffffffffffffffffffffffffffffffffffffff1681526020019081526020016000205490506000600760003373ffffffffffffffffffffffffffffffffffffffff1673ffffffffffffffffffffffffffffffffffffffff168152602001908152602001600020819055507f000000000000000000000000000000000000000000000000000000000000000073ffffffffffffffffffffffffffffffffffffffff1663a9059cbb33836040518363ffffffff1660e01b8152600401610a699291906127ed565b602060405180830381600087803b158015610a8357600080fd5b505af1158015610a97573d6000803e3d6000fd5b505050506040513d601f19601f82011682018060405250810190610abb9190612229565b503373ffffffffffffffffffffffffffffffffffffffff16427f24b5efa61dd1cfc659205a97fb8ed868f3cb8c81922bab2b96423e5de1de2cb783604051610b039190612b18565b60405180910390a350565b60007f000000000000000000000000000000000000000000000000000000000000000073ffffffffffffffffffffffffffffffffffffffff163373ffffffffffffffffffffffffffffffffffffffff1614610b9e576040517f08c379a0000000000000000000000000000000000000000000000000000000008152600401610b9590612a18565b60405180910390fd5b600854905090565b60008060008373ffffffffffffffffffffffffffffffffffffffff1673ffffffffffffffffffffffffffffffffffffffff168152602001908152602001600020549050919050565b606060048054610bfd90612dce565b80601f0160208091040260200160405190810160405280929190818152602001828054610c2990612dce565b8015610c765780601f10610c4b57610100808354040283529160200191610c76565b820191906000526020600020905b815481529060010190602001808311610c5957829003601f168201915b5050505050905090565b60008060016000610c8f611392565b73ffffffffffffffffffffffffffffffffffffffff1673ffffffffffffffffffffffffffffffffffffffff16815260200190815260200160002060008573ffffffffffffffffffffffffffffffffffffffff1673ffffffffffffffffffffffffffffffffffffffff16815260200190815260200160002054905082811015610d4c576040517f08c379a0000000000000000000000000000000000000000000000000000000008152600401610d4390612ad8565b60405180910390fd5b610d69610d57611392565b858584610d649190612cf9565b61139a565b600191505092915050565b6000610d88610d81611392565b8484611565565b6001905092915050565b60008111610dd5576040517f08c379a0000000000000000000000000000000000000000000000000000000008152600401610dcc90612918565b60405180910390fd5b6000610df4610dec83670de0b6b3a76400006119b9565b6103e86119cf565b905060008111610e39576040517f08c379a0000000000000000000000000000000000000000000000000000000008152600401610e30906128d8565b60405180910390fd5b807f000000000000000000000000000000000000000000000000000000000000000073ffffffffffffffffffffffffffffffffffffffff166370a08231336040518263ffffffff1660e01b8152600401610e939190612772565b60206040518083038186803b158015610eab57600080fd5b505afa158015610ebf573d6000803e3d6000fd5b505050506040513d601f19601f82011682018060405250810190610ee39190612283565b1015610f24576040517f08c379a0000000000000000000000000000000000000000000000000000000008152600401610f1b90612ab8565b60405180910390fd5b807f000000000000000000000000000000000000000000000000000000000000000073ffffffffffffffffffffffffffffffffffffffff1663dd62ed3e33306040518363ffffffff1660e01b8152600401610f8092919061278d565b60206040518083038186803b158015610f9857600080fd5b505afa158015610fac573d6000803e3d6000fd5b505050506040513d601f19601f82011682018060405250810190610fd09190612283565b1015611011576040517f08c379a0000000000000000000000000000000000000000000000000000000008152600401611008906128f8565b60405180910390fd5b7f000000000000000000000000000000000000000000000000000000000000000073ffffffffffffffffffffffffffffffffffffffff166323b872dd3330846040518463ffffffff1660e01b815260040161106e939291906127b6565b602060405180830381600087803b15801561108857600080fd5b505af115801561109c573d6000803e3d6000fd5b505050506040513d601f19601f820116820180604052508101906110c09190612229565b5060006110e26110db836110d6606460056119e5565b6119b9565b60646119cf565b90506000805b6005805490508110156112285760006005828154811061110b5761110a612f6e565b5b9060005260206000200160009054906101000a900473ffffffffffffffffffffffffffffffffffffffff169050600061114382610ba6565b11611183576040517f08c379a000000000000000000000000000000000000000000000000000000000815260040161117a90612a98565b60405180910390fd5b600061118e82610ba6565b905060006111ac61119f87846119b9565b6111a7610439565b6119cf565b905080600760008573ffffffffffffffffffffffffffffffffffffffff1673ffffffffffffffffffffffffffffffffffffffff16815260200190815260200160002060008282546111fd9190612be1565b9250508190555080856112109190612be1565b9450505050808061122090612e31565b9150506110e8565b5061123383826119e5565b600860008282546112449190612be1565b925050819055503373ffffffffffffffffffffffffffffffffffffffff16427f3b599f6217e39be59216b60e543ce0d4c7d534fe64dd9d962334924e7819894e866040516112929190612b18565b60405180910390a350505050565b6000600160008473ffffffffffffffffffffffffffffffffffffffff1673ffffffffffffffffffffffffffffffffffffffff16815260200190815260200160002060008373ffffffffffffffffffffffffffffffffffffffff1673ffffffffffffffffffffffffffffffffffffffff16815260200190815260200160002054905092915050565b6000600760003373ffffffffffffffffffffffffffffffffffffffff1673ffffffffffffffffffffffffffffffffffffffff16815260200190815260200160002054905090565b7f000000000000000000000000000000000000000000000000000000000000000081565b600033905090565b600073ffffffffffffffffffffffffffffffffffffffff168373ffffffffffffffffffffffffffffffffffffffff16141561140a576040517f08c379a000000000000000000000000000000000000000000000000000000000815260040161140190612a38565b60405180910390fd5b600073ffffffffffffffffffffffffffffffffffffffff168273ffffffffffffffffffffffffffffffffffffffff16141561147a576040517f08c379a000000000000000000000000000000000000000000000000000000000815260040161147190612938565b60405180910390fd5b80600160008573ffffffffffffffffffffffffffffffffffffffff1673ffffffffffffffffffffffffffffffffffffffff16815260200190815260200160002060008473ffffffffffffffffffffffffffffffffffffffff1673ffffffffffffffffffffffffffffffffffffffff168152602001908152602001600020819055508173ffffffffffffffffffffffffffffffffffffffff168373ffffffffffffffffffffffffffffffffffffffff167f8c5be1e5ebec7d5bd14f71427d1e84f3dd0314c0f7b2291e5b200ac8c7c3b925836040516115589190612b18565b60405180910390a3505050565b600073ffffffffffffffffffffffffffffffffffffffff168373ffffffffffffffffffffffffffffffffffffffff1614156115d5576040517f08c379a00000000000000000000000000000000000000000000000000000000081526004016115cc906129f8565b60405180910390fd5b600073ffffffffffffffffffffffffffffffffffffffff168273ffffffffffffffffffffffffffffffffffffffff161415611645576040517f08c379a000000000000000000000000000000000000000000000000000000000815260040161163c906128b8565b60405180910390fd5b6116508383836119fb565b60008060008573ffffffffffffffffffffffffffffffffffffffff1673ffffffffffffffffffffffffffffffffffffffff168152602001908152602001600020549050818110156116d6576040517f08c379a00000000000000000000000000000000000000000000000000000000081526004016116cd90612978565b60405180910390fd5b81816116e29190612cf9565b6000808673ffffffffffffffffffffffffffffffffffffffff1673ffffffffffffffffffffffffffffffffffffffff16815260200190815260200160002081905550816000808573ffffffffffffffffffffffffffffffffffffffff1673ffffffffffffffffffffffffffffffffffffffff16815260200190815260200160002060008282546117729190612be1565b925050819055508273ffffffffffffffffffffffffffffffffffffffff168473ffffffffffffffffffffffffffffffffffffffff167fddf252ad1be2c89b69c2b068fc378daa952ba7f163c4a11628f55a4df523b3ef846040516117d69190612b18565b60405180910390a350505050565b6000806117f2868686611b81565b905060006117ff82611bb7565b90507f000000000000000000000000000000000000000000000000000000000000000073ffffffffffffffffffffffffffffffffffffffff166118428286611be7565b73ffffffffffffffffffffffffffffffffffffffff161492505050949350505050565b600073ffffffffffffffffffffffffffffffffffffffff168273ffffffffffffffffffffffffffffffffffffffff1614156118d5576040517f08c379a00000000000000000000000000000000000000000000000000000000081526004016118cc90612af8565b60405180910390fd5b6118e1600083836119fb565b80600260008282546118f39190612be1565b92505081905550806000808473ffffffffffffffffffffffffffffffffffffffff1673ffffffffffffffffffffffffffffffffffffffff16815260200190815260200160002060008282546119489190612be1565b925050819055508173ffffffffffffffffffffffffffffffffffffffff16600073ffffffffffffffffffffffffffffffffffffffff167fddf252ad1be2c89b69c2b068fc378daa952ba7f163c4a11628f55a4df523b3ef836040516119ad9190612b18565b60405180910390a35050565b600081836119c79190612c9f565b905092915050565b600081836119dd9190612c6e565b905092915050565b600081836119f39190612cf9565b905092915050565b80611a0584610ba6565b148015611a3f5750600073ffffffffffffffffffffffffffffffffffffffff168373ffffffffffffffffffffffffffffffffffffffff1614155b15611ae3576000600660008573ffffffffffffffffffffffffffffffffffffffff1673ffffffffffffffffffffffffffffffffffffffff16815260200190815260200160002060000160009054906101000a900460ff16905080611ad8576040517f08c379a0000000000000000000000000000000000000000000000000000000008152600401611acf90612a58565b60405180910390fd5b611ae184611c56565b505b600073ffffffffffffffffffffffffffffffffffffffff168273ffffffffffffffffffffffffffffffffffffffff1614611b7c576000600660008473ffffffffffffffffffffffffffffffffffffffff1673ffffffffffffffffffffffffffffffffffffffff16815260200190815260200160002060000160009054906101000a900460ff16905080611b7a57611b7983611ec8565b5b505b505050565b6000838383604051602001611b9893929190612735565b6040516020818303038152906040528051906020012090509392505050565b600081604051602001611bca919061270f565b604051602081830303815290604052805190602001209050919050565b600080600080611bf685611fe1565b92509250925060018682858560405160008152602001604052604051611c1f9493929190612831565b6020604051602081039080840390855afa158015611c41573d6000803e3d6000fd5b50505060206040510351935050505092915050565b6000600660008373ffffffffffffffffffffffffffffffffffffffff1673ffffffffffffffffffffffffffffffffffffffff1681526020019081526020016000206001015490506001600580549050611caf9190612cf9565b8114611e1f57600060056001600580549050611ccb9190612cf9565b81548110611cdc57611cdb612f6e565b5b9060005260206000200160009054906101000a900473ffffffffffffffffffffffffffffffffffffffff169050600073ffffffffffffffffffffffffffffffffffffffff168173ffffffffffffffffffffffffffffffffffffffff161415611d79576040517f08c379a0000000000000000000000000000000000000000000000000000000008152600401611d7090612958565b60405180910390fd5b8060058381548110611d8e57611d8d612f6e565b5b9060005260206000200160006101000a81548173ffffffffffffffffffffffffffffffffffffffff021916908373ffffffffffffffffffffffffffffffffffffffff16021790555081600660008373ffffffffffffffffffffffffffffffffffffffff1673ffffffffffffffffffffffffffffffffffffffff16815260200190815260200160002060010181905550505b6005805480611e3157611e30612f3f565b5b6001900381819060005260206000200160006101000a81549073ffffffffffffffffffffffffffffffffffffffff02191690559055600660008373ffffffffffffffffffffffffffffffffffffffff1673ffffffffffffffffffffffffffffffffffffffff168152602001908152602001600020600080820160006101000a81549060ff0219169055600182016000905550505050565b6005819080600181540180825580915050600190039060005260206000200160009091909190916101000a81548173ffffffffffffffffffffffffffffffffffffffff021916908373ffffffffffffffffffffffffffffffffffffffff1602179055506001600660008373ffffffffffffffffffffffffffffffffffffffff1673ffffffffffffffffffffffffffffffffffffffff16815260200190815260200160002060000160006101000a81548160ff0219169083151502179055506001600580549050611f989190612cf9565b600660008373ffffffffffffffffffffffffffffffffffffffff1673ffffffffffffffffffffffffffffffffffffffff1681526020019081526020016000206001018190555050565b6000806000604184511461202a576040517f08c379a000000000000000000000000000000000000000000000000000000000815260040161202190612a78565b60405180910390fd5b602084015192506040840151915060ff6041850151169050601b8160ff16101561205e57601b8161205b9190612c37565b90505b9193909250565b600061207861207384612b73565b612b4e565b90508281526020810184848401111561209457612093612fd1565b5b61209f848285612d8c565b509392505050565b6000813590506120b6816134d7565b92915050565b6000815190506120cb816134ee565b92915050565b600082601f8301126120e6576120e5612fcc565b5b81356120f6848260208601612065565b91505092915050565b60008135905061210e81613505565b92915050565b60008151905061212381613505565b92915050565b60006020828403121561213f5761213e612fdb565b5b600061214d848285016120a7565b91505092915050565b6000806040838503121561216d5761216c612fdb565b5b600061217b858286016120a7565b925050602061218c858286016120a7565b9150509250929050565b6000806000606084860312156121af576121ae612fdb565b5b60006121bd868287016120a7565b93505060206121ce868287016120a7565b92505060406121df868287016120ff565b9150509250925092565b60008060408385031215612200576121ff612fdb565b5b600061220e858286016120a7565b925050602061221f858286016120ff565b9150509250929050565b60006020828403121561223f5761223e612fdb565b5b600061224d848285016120bc565b91505092915050565b60006020828403121561226c5761226b612fdb565b5b600061227a848285016120ff565b91505092915050565b60006020828403121561229957612298612fdb565b5b60006122a784828501612114565b91505092915050565b6000806000606084860312156122c9576122c8612fdb565b5b60006122d7868287016120ff565b93505060206122e8868287016120ff565b925050604084013567ffffffffffffffff81111561230957612308612fd6565b5b612315868287016120d1565b9150509250925092565b61232881612d2d565b82525050565b61233f61233a82612d2d565b612e7a565b82525050565b61234e81612d3f565b82525050565b61235d81612d4b565b82525050565b61237461236f82612d4b565b612e8c565b82525050565b600061238582612ba4565b61238f8185612bba565b935061239f818560208601612d9b565b80840191505092915050565b60006123b682612baf565b6123c08185612bc5565b93506123d0818560208601612d9b565b6123d981612fe0565b840191505092915050565b60006123f1601183612bc5565b91506123fc82612ffe565b602082019050919050565b6000612414602383612bc5565b915061241f82613027565b604082019050919050565b6000612437601683612bc5565b915061244282613076565b602082019050919050565b600061245a601c83612bd6565b91506124658261309f565b601c82019050919050565b600061247d601a83612bc5565b9150612488826130c8565b602082019050919050565b60006124a0602c83612bc5565b91506124ab826130f1565b604082019050919050565b60006124c3602283612bc5565b91506124ce82613140565b604082019050919050565b60006124e6602b83612bc5565b91506124f18261318f565b604082019050919050565b6000612509602683612bc5565b9150612514826131de565b604082019050919050565b600061252c601983612bc5565b91506125378261322d565b602082019050919050565b600061254f601383612bc5565b915061255a82613256565b602082019050919050565b6000612572602883612bc5565b915061257d8261327f565b604082019050919050565b6000612595602583612bc5565b91506125a0826132ce565b604082019050919050565b60006125b8603083612bc5565b91506125c38261331d565b604082019050919050565b60006125db602483612bc5565b91506125e68261336c565b604082019050919050565b60006125fe601e83612bc5565b9150612609826133bb565b602082019050919050565b6000612621601883612bc5565b915061262c826133e4565b602082019050919050565b6000612644601e83612bc5565b915061264f8261340d565b602082019050919050565b6000612667601883612bc5565b915061267282613436565b602082019050919050565b600061268a602583612bc5565b91506126958261345f565b604082019050919050565b60006126ad601f83612bc5565b91506126b8826134ae565b602082019050919050565b6126cc81612d75565b82525050565b6126e36126de82612d75565b612ea8565b82525050565b6126f281612d7f565b82525050565b6000612704828461237a565b915081905092915050565b600061271a8261244d565b91506127268284612363565b60208201915081905092915050565b600061274182866126d2565b60208201915061275182856126d2565b602082019150612761828461232e565b601482019150819050949350505050565b6000602082019050612787600083018461231f565b92915050565b60006040820190506127a2600083018561231f565b6127af602083018461231f565b9392505050565b60006060820190506127cb600083018661231f565b6127d8602083018561231f565b6127e560408301846126c3565b949350505050565b6000604082019050612802600083018561231f565b61280f60208301846126c3565b9392505050565b600060208201905061282b6000830184612345565b92915050565b60006080820190506128466000830187612354565b61285360208301866126e9565b6128606040830185612354565b61286d6060830184612354565b95945050505050565b6000602082019050818103600083015261289081846123ab565b905092915050565b600060208201905081810360008301526128b1816123e4565b9050919050565b600060208201905081810360008301526128d181612407565b9050919050565b600060208201905081810360008301526128f18161242a565b9050919050565b6000602082019050818103600083015261291181612470565b9050919050565b6000602082019050818103600083015261293181612493565b9050919050565b60006020820190508181036000830152612951816124b6565b9050919050565b60006020820190508181036000830152612971816124d9565b9050919050565b60006020820190508181036000830152612991816124fc565b9050919050565b600060208201905081810360008301526129b18161251f565b9050919050565b600060208201905081810360008301526129d181612542565b9050919050565b600060208201905081810360008301526129f181612565565b9050919050565b60006020820190508181036000830152612a1181612588565b9050919050565b60006020820190508181036000830152612a31816125ab565b9050919050565b60006020820190508181036000830152612a51816125ce565b9050919050565b60006020820190508181036000830152612a71816125f1565b9050919050565b60006020820190508181036000830152612a9181612614565b9050919050565b60006020820190508181036000830152612ab181612637565b9050919050565b60006020820190508181036000830152612ad18161265a565b9050919050565b60006020820190508181036000830152612af18161267d565b9050919050565b60006020820190508181036000830152612b11816126a0565b9050919050565b6000602082019050612b2d60008301846126c3565b92915050565b6000602082019050612b4860008301846126e9565b92915050565b6000612b58612b69565b9050612b648282612e00565b919050565b6000604051905090565b600067ffffffffffffffff821115612b8e57612b8d612f9d565b5b612b9782612fe0565b9050602081019050919050565b600081519050919050565b600081519050919050565b600081905092915050565b600082825260208201905092915050565b600081905092915050565b6000612bec82612d75565b9150612bf783612d75565b9250827fffffffffffffffffffffffffffffffffffffffffffffffffffffffffffffffff03821115612c2c57612c2b612eb2565b5b828201905092915050565b6000612c4282612d7f565b9150612c4d83612d7f565b92508260ff03821115612c6357612c62612eb2565b5b828201905092915050565b6000612c7982612d75565b9150612c8483612d75565b925082612c9457612c93612ee1565b5b828204905092915050565b6000612caa82612d75565b9150612cb583612d75565b9250817fffffffffffffffffffffffffffffffffffffffffffffffffffffffffffffffff0483118215151615612cee57612ced612eb2565b5b828202905092915050565b6000612d0482612d75565b9150612d0f83612d75565b925082821015612d2257612d21612eb2565b5b828203905092915050565b6000612d3882612d55565b9050919050565b60008115159050919050565b6000819050919050565b600073ffffffffffffffffffffffffffffffffffffffff82169050919050565b6000819050919050565b600060ff82169050919050565b82818337600083830152505050565b60005b83811015612db9578082015181840152602081019050612d9e565b83811115612dc8576000848401525b50505050565b60006002820490506001821680612de657607f821691505b60208210811415612dfa57612df9612f10565b5b50919050565b612e0982612fe0565b810181811067ffffffffffffffff82111715612e2857612e27612f9d565b5b80604052505050565b6000612e3c82612d75565b91507fffffffffffffffffffffffffffffffffffffffffffffffffffffffffffffffff821415612e6f57612e6e612eb2565b5b600182019050919050565b6000612e8582612e96565b9050919050565b6000819050919050565b6000612ea182612ff1565b9050919050565b6000819050919050565b7f4e487b7100000000000000000000000000000000000000000000000000000000600052601160045260246000fd5b7f4e487b7100000000000000000000000000000000000000000000000000000000600052601260045260246000fd5b7f4e487b7100000000000000000000000000000000000000000000000000000000600052602260045260246000fd5b7f4e487b7100000000000000000000000000000000000000000000000000000000600052603160045260246000fd5b7f4e487b7100000000000000000000000000000000000000000000000000000000600052603260045260246000fd5b7f4e487b7100000000000000000000000000000000000000000000000000000000600052604160045260246000fd5b600080fd5b600080fd5b600080fd5b600080fd5b6000601f19601f8301169050919050565b60008160601b9050919050565b7f4e6f20756e636c61696d65642072656e74000000000000000000000000000000600082015250565b7f45524332303a207472616e7366657220746f20746865207a65726f206164647260008201527f6573730000000000000000000000000000000000000000000000000000000000602082015250565b7f5265636f726420636f756e7420746f6f20736d616c6c00000000000000000000600082015250565b7f19457468657265756d205369676e6564204d6573736167653a0a333200000000600082015250565b7f416c6c6f77616e6365206e6f74206c6172676520656e6f756768000000000000600082015250565b7f526571756573747320666f7220706f736974697665206e756d626572206f662060008201527f7265636f726473206f6e6c790000000000000000000000000000000000000000602082015250565b7f45524332303a20617070726f766520746f20746865207a65726f20616464726560008201527f7373000000000000000000000000000000000000000000000000000000000000602082015250565b7f457870656374696e6720686f6c646572206e6f7420746f20626520746865206e60008201527f756c6c2061646472657373000000000000000000000000000000000000000000602082015250565b7f45524332303a207472616e7366657220616d6f756e742065786365656473206260008201527f616c616e63650000000000000000000000000000000000000000000000000000602082015250565b7f5369676e617475726520616c726561647920636c61696d656400000000000000600082015250565b7f5369676e6174757265206e6f742076616c696400000000000000000000000000600082015250565b7f45524332303a207472616e7366657220616d6f756e742065786365656473206160008201527f6c6c6f77616e6365000000000000000000000000000000000000000000000000602082015250565b7f45524332303a207472616e736665722066726f6d20746865207a65726f20616460008201527f6472657373000000000000000000000000000000000000000000000000000000602082015250565b7f4f6e6c79207468652061646d696e20697320616c6c6f77656420746f2063616c60008201527f6c2074686973206f7065726174696f6e00000000000000000000000000000000602082015250565b7f45524332303a20617070726f76652066726f6d20746865207a65726f2061646460008201527f7265737300000000000000000000000000000000000000000000000000000000602082015250565b7f457870656374696e6720686f6c64657220746f2062652070726573656e740000600082015250565b7f496e76616c6964207369676e6174757265206c656e6774680000000000000000600082015250565b7f486f6c646572206172726179206973206e6f7420757020746f20646174650000600082015250565b7f42616c616e6365206e6f74206c6172676520656e6f7567680000000000000000600082015250565b7f45524332303a2064656372656173656420616c6c6f77616e63652062656c6f7760008201527f207a65726f000000000000000000000000000000000000000000000000000000602082015250565b7f45524332303a206d696e7420746f20746865207a65726f206164647265737300600082015250565b6134e081612d2d565b81146134eb57600080fd5b50565b6134f781612d3f565b811461350257600080fd5b50565b61350e81612d75565b811461351957600080fd5b5056fea26469706673582212202e0f9c99aa1e17817ac5e97f693d0958f512b5b3a604267120c4d0ea43d0af6f64736f6c63430008060033",
  "immutableReferences": {
    "28": [
      {
        "length": 32,
        "start": 1673
      },
      {
        "length": 32,
        "start": 2576
      },
      {
        "length": 32,
        "start": 3644
      },
      {
        "length": 32,
        "start": 3879
      },
      {
        "length": 32,
        "start": 4115
      }
    ],
    "48": [
      {
        "length": 32,
        "start": 6147
      }
    ],
    "691": [
      {
        "length": 32,
        "start": 1531
      },
      {
        "length": 32,
        "start": 1733
      },
      {
        "length": 32,
        "start": 2834
      },
      {
        "length": 32,
        "start": 4976
      }
    ]
  },
  "source": "// SPDX-License-Identifier: GPL-3.0\npragma solidity ^0.8.0;\n\nimport \"@openzeppelin/contracts/token/ERC20/ERC20.sol\";\nimport \"@openzeppelin/contracts/token/ERC20/IERC20.sol\";\nimport \"@openzeppelin/contracts/utils/math/SafeMath.sol\";\nimport \"./Owned.sol\";\n\nstruct Entry {\n  bool exists;\n  uint index;\n}\n\ncontract DataProviderToken is ERC20, Owned {\n  uint256 private constant FEE = 5; // 5%\n  uint256 private constant RECORDS_PER_DATA_ACCESS_TOKEN = 1000;\n  uint private constant ACCESS_TOKEN_DECIMALS = 10**18;\n\n  IERC20 private immutable dataAccessToken;\n\n  address[] private holders;\n  mapping(address => Entry) holdersMap;\n  mapping(address => uint256) private unclaimedBalances;\n  uint256 private ownerUnclaimedBalance;\n\n  mapping(bytes => bool) usedSignatures;\n  address private immutable signer;\n\n  event Provided(\n    uint256 indexed timestamp,\n    address indexed provider,\n    uint256 recordCount\n  );\n\n  event Buy(\n    uint256 indexed timestamp,\n    address indexed buyer,\n    uint256 recordCount\n  );\n\n  event RewardClaimed(\n    uint256 indexed timestamp,\n    address indexed claimer,\n    uint256 amount\n  );\n\n  constructor(address dataAccessTokenAddress, address _signer) ERC20(\"DataProviderToken\", \"DPT\") {\n    dataAccessToken = IERC20(dataAccessTokenAddress);\n    signer = _signer;\n  }\n\n  function provide(uint256 recordCount, uint256 timestamp, bytes memory signature) external {\n    bool valid = validate(recordCount, timestamp, msg.sender, signature);\n    \n    require(valid, 'Signature not valid');\n    require(!usedSignatures[signature], 'Signature already claimed');\n\n    _mint(msg.sender, recordCount);\n\n    usedSignatures[signature] = true;\n\n    emit Provided(block.timestamp, msg.sender, recordCount);\n  }\n\n  function buy(uint256 recordCount) external {\n    require(recordCount > 0, \"Requests for positive number of records only\");\n    uint256 dataAccessTokenCount = \n        SafeMath.div(\n          SafeMath.mul(recordCount, ACCESS_TOKEN_DECIMALS), \n          RECORDS_PER_DATA_ACCESS_TOKEN);\n\n    require(dataAccessTokenCount > 0, \"Record count too small\");\n    require(dataAccessToken.balanceOf(msg.sender) >= dataAccessTokenCount, \"Balance not large enough\");\n    require(dataAccessToken.allowance(msg.sender, address(this)) >= dataAccessTokenCount, \"Allowance not large enough\");\n\n    dataAccessToken.transferFrom(msg.sender, address(this), dataAccessTokenCount); //lock in contract\n\n    uint256 rewardsToDistribute = \n      SafeMath.div(\n        SafeMath.mul(\n          dataAccessTokenCount, \n          SafeMath.sub(100, FEE)),\n        100);\n    \n    uint256 rewardsDistributed = 0;\n\n    for (uint256 index = 0; index < holders.length; index++) {\n      address holder = holders[index];\n      require(balanceOf(holder) > 0, \"Holder array is not up to date\");\n      uint256 balance = balanceOf(holder);\n      uint256 rewardClaim =\n        SafeMath.div(SafeMath.mul(rewardsToDistribute, balance), totalSupply());\n      unclaimedBalances[holder] += rewardClaim;\n      rewardsDistributed += rewardClaim;\n    }\n\n    ownerUnclaimedBalance += SafeMath.sub(dataAccessTokenCount, rewardsDistributed);\n\n    emit Buy(block.timestamp, msg.sender, recordCount);\n  }\n\n  function claim() external {\n    require(unclaimedBalances[msg.sender] > 0, \"No unclaimed rent\");\n    uint256 claimAmount = unclaimedBalances[msg.sender];\n    unclaimedBalances[msg.sender] = 0;\n    dataAccessToken.transfer(msg.sender, claimAmount);\n\n    emit RewardClaimed(block.timestamp, msg.sender, claimAmount);\n  }\n\n  function claimOwner() external onlyAdmin {\n    dataAccessToken.transfer(admin, ownerUnclaimedBalance);\n\n    emit RewardClaimed(block.timestamp, msg.sender, ownerUnclaimedBalance);\n\n    ownerUnclaimedBalance = 0;\n  }\n\n  function showUnclaimed() external view returns (uint256) {\n    return unclaimedBalances[msg.sender];\n  }\n\n  function showUnclaimedOwner() external view onlyAdmin returns (uint256) {\n    return ownerUnclaimedBalance;\n  }\n\n  function _beforeTokenTransfer(address from, address to, uint256 amount) internal override {\n    if (balanceOf(from) == amount && from != address(0)) {\n      // not minting and sender has no balance left afterwards\n      bool foundTo = holdersMap[from].exists;\n      require(foundTo, \"Expecting holder to be present\");\n\n      deleteHolder(from);\n    }\n\n    if (to != address(0)) {\n      // not burning\n      bool foundTo = holdersMap[to].exists;\n      if (!foundTo) {\n        insertHolder(to);\n      }\n    }\n  }\n\n  function insertHolder(address holder) internal {\n    holders.push(holder);\n    holdersMap[holder].exists = true;\n    holdersMap[holder].index = holders.length - 1;\n  }\n\n  function deleteHolder(address holderToDelete) internal {\n    uint indexToDelete = holdersMap[holderToDelete].index;  \n\n    if (indexToDelete != holders.length - 1) {\n      address lastHolder = holders[holders.length - 1];\n      require(lastHolder != address(0), \"Expecting holder not to be the null address\");\n      holders[indexToDelete] = lastHolder;\n      holdersMap[lastHolder].index = indexToDelete;\n    }\n    holders.pop();\n    delete holdersMap[holderToDelete];\n  }\n\n  function validate(uint256 recordCount, uint256 timestamp, address sender, bytes memory signature) internal view returns (bool) {\n    bytes32 messageHash = getMessageHash(recordCount, timestamp, sender);\n    bytes32 ethSignedMessageHash = getEthSignedMessageHash(messageHash);\n\n    return recoverSigner(ethSignedMessageHash, signature) == signer;\n  }\n\n  function getMessageHash(uint256 recordCount, uint256 timestamp, address sender) internal pure returns (bytes32) {\n    return keccak256(abi.encodePacked(recordCount, timestamp, sender));\n  }\n\n  function getEthSignedMessageHash(bytes32 messageHash) internal pure returns (bytes32) {\n    return keccak256(abi.encodePacked(\"\\x19Ethereum Signed Message:\\n32\", messageHash));\n  }\n\n  function recoverSigner(bytes32 ethSignedMessageHash, bytes memory signature) internal pure returns (address) {\n    (bytes32 r, bytes32 s, uint8 v) = splitSignature(signature);\n\n    return ecrecover(ethSignedMessageHash, v, r, s);\n  }\n\n  function splitSignature(bytes memory signature) internal pure returns (bytes32 r, bytes32 s, uint8 v) {\n    require(signature.length == 65, \"Invalid signature length\");\n\n    assembly {\n      r := mload(add(signature, 32))\n      s := mload(add(signature, 64))\n      v := and(mload(add(signature, 65)), 255)\n    }\n    if (v < 27) v += 27;\n  }\n}",
  "sourcePath": "/Users/hagenschupp/Documents/Projekte/Ethereum/DataAccess/contract/contracts/DataProviderToken.sol",
  "compiler": {
    "name": "solc",
    "version": "0.8.6+commit.11564f7e.Emscripten.clang"
  },
  "schemaVersion": "3.3.4",
  "updatedAt": "2021-07-07T16:28:13.138Z",
  "networkType": "ethereum",
  "devdoc": {
    "kind": "dev",
    "methods": {
      "allowance(address,address)": {
        "details": "See {IERC20-allowance}."
      },
      "approve(address,uint256)": {
        "details": "See {IERC20-approve}. Requirements: - `spender` cannot be the zero address."
      },
      "balanceOf(address)": {
        "details": "See {IERC20-balanceOf}."
      },
      "decimals()": {
        "details": "Returns the number of decimals used to get its user representation. For example, if `decimals` equals `2`, a balance of `505` tokens should be displayed to a user as `5,05` (`505 / 10 ** 2`). Tokens usually opt for a value of 18, imitating the relationship between Ether and Wei. This is the value {ERC20} uses, unless this function is overloaded; NOTE: This information is only used for _display_ purposes: it in no way affects any of the arithmetic of the contract, including {IERC20-balanceOf} and {IERC20-transfer}."
      },
      "decreaseAllowance(address,uint256)": {
        "details": "Atomically decreases the allowance granted to `spender` by the caller. This is an alternative to {approve} that can be used as a mitigation for problems described in {IERC20-approve}. Emits an {Approval} event indicating the updated allowance. Requirements: - `spender` cannot be the zero address. - `spender` must have allowance for the caller of at least `subtractedValue`."
      },
      "increaseAllowance(address,uint256)": {
        "details": "Atomically increases the allowance granted to `spender` by the caller. This is an alternative to {approve} that can be used as a mitigation for problems described in {IERC20-approve}. Emits an {Approval} event indicating the updated allowance. Requirements: - `spender` cannot be the zero address."
      },
      "name()": {
        "details": "Returns the name of the token."
      },
      "symbol()": {
        "details": "Returns the symbol of the token, usually a shorter version of the name."
      },
      "totalSupply()": {
        "details": "See {IERC20-totalSupply}."
      },
      "transfer(address,uint256)": {
        "details": "See {IERC20-transfer}. Requirements: - `recipient` cannot be the zero address. - the caller must have a balance of at least `amount`."
      },
      "transferFrom(address,address,uint256)": {
        "details": "See {IERC20-transferFrom}. Emits an {Approval} event indicating the updated allowance. This is not required by the EIP. See the note at the beginning of {ERC20}. Requirements: - `sender` and `recipient` cannot be the zero address. - `sender` must have a balance of at least `amount`. - the caller must have allowance for ``sender``'s tokens of at least `amount`."
      }
    },
    "version": 1
  },
  "userdoc": {
    "kind": "user",
    "methods": {},
    "version": 1
  }
}