{
  "contractName": "DataAccessToken",
  "abi": [
    {
      "inputs": [
        {
          "internalType": "address",
          "name": "usdcAddress",
          "type": "address"
        }
      ],
      "stateMutability": "nonpayable",
      "type": "constructor"
    },
    {
      "anonymous": false,
      "inputs": [
        {
          "indexed": true,
          "internalType": "address",
          "name": "owner",
          "type": "address"
        },
        {
          "indexed": true,
          "internalType": "address",
          "name": "spender",
          "type": "address"
        },
        {
          "indexed": false,
          "internalType": "uint256",
          "name": "value",
          "type": "uint256"
        }
      ],
      "name": "Approval",
      "type": "event"
    },
    {
      "anonymous": false,
      "inputs": [
        {
          "indexed": true,
          "internalType": "uint256",
          "name": "timestamp",
          "type": "uint256"
        },
        {
          "indexed": true,
          "internalType": "address",
          "name": "targetAddress",
          "type": "address"
        },
        {
          "indexed": false,
          "internalType": "uint256",
          "name": "usdcAmount",
          "type": "uint256"
        },
        {
          "indexed": false,
          "internalType": "uint256",
          "name": "dataAccessTokenCount",
          "type": "uint256"
        }
      ],
      "name": "Burn",
      "type": "event"
    },
    {
      "anonymous": false,
      "inputs": [
        {
          "indexed": true,
          "internalType": "uint256",
          "name": "timestamp",
          "type": "uint256"
        },
        {
          "indexed": true,
          "internalType": "address",
          "name": "targetAddress",
          "type": "address"
        },
        {
          "indexed": false,
          "internalType": "uint256",
          "name": "usdcAmount",
          "type": "uint256"
        },
        {
          "indexed": false,
          "internalType": "uint256",
          "name": "dataAccessTokenCount",
          "type": "uint256"
        }
      ],
      "name": "Mint",
      "type": "event"
    },
    {
      "anonymous": false,
      "inputs": [
        {
          "indexed": true,
          "internalType": "address",
          "name": "from",
          "type": "address"
        },
        {
          "indexed": true,
          "internalType": "address",
          "name": "to",
          "type": "address"
        },
        {
          "indexed": false,
          "internalType": "uint256",
          "name": "value",
          "type": "uint256"
        }
      ],
      "name": "Transfer",
      "type": "event"
    },
    {
      "inputs": [
        {
          "internalType": "address",
          "name": "owner",
          "type": "address"
        },
        {
          "internalType": "address",
          "name": "spender",
          "type": "address"
        }
      ],
      "name": "allowance",
      "outputs": [
        {
          "internalType": "uint256",
          "name": "",
          "type": "uint256"
        }
      ],
      "stateMutability": "view",
      "type": "function",
      "constant": true
    },
    {
      "inputs": [
        {
          "internalType": "address",
          "name": "spender",
          "type": "address"
        },
        {
          "internalType": "uint256",
          "name": "amount",
          "type": "uint256"
        }
      ],
      "name": "approve",
      "outputs": [
        {
          "internalType": "bool",
          "name": "",
          "type": "bool"
        }
      ],
      "stateMutability": "nonpayable",
      "type": "function"
    },
    {
      "inputs": [
        {
          "internalType": "address",
          "name": "account",
          "type": "address"
        }
      ],
      "name": "balanceOf",
      "outputs": [
        {
          "internalType": "uint256",
          "name": "",
          "type": "uint256"
        }
      ],
      "stateMutability": "view",
      "type": "function",
      "constant": true
    },
    {
      "inputs": [],
      "name": "decimals",
      "outputs": [
        {
          "internalType": "uint8",
          "name": "",
          "type": "uint8"
        }
      ],
      "stateMutability": "view",
      "type": "function",
      "constant": true
    },
    {
      "inputs": [
        {
          "internalType": "address",
          "name": "spender",
          "type": "address"
        },
        {
          "internalType": "uint256",
          "name": "subtractedValue",
          "type": "uint256"
        }
      ],
      "name": "decreaseAllowance",
      "outputs": [
        {
          "internalType": "bool",
          "name": "",
          "type": "bool"
        }
      ],
      "stateMutability": "nonpayable",
      "type": "function"
    },
    {
      "inputs": [
        {
          "internalType": "address",
          "name": "spender",
          "type": "address"
        },
        {
          "internalType": "uint256",
          "name": "addedValue",
          "type": "uint256"
        }
      ],
      "name": "increaseAllowance",
      "outputs": [
        {
          "internalType": "bool",
          "name": "",
          "type": "bool"
        }
      ],
      "stateMutability": "nonpayable",
      "type": "function"
    },
    {
      "inputs": [],
      "name": "name",
      "outputs": [
        {
          "internalType": "string",
          "name": "",
          "type": "string"
        }
      ],
      "stateMutability": "view",
      "type": "function",
      "constant": true
    },
    {
      "inputs": [],
      "name": "symbol",
      "outputs": [
        {
          "internalType": "string",
          "name": "",
          "type": "string"
        }
      ],
      "stateMutability": "view",
      "type": "function",
      "constant": true
    },
    {
      "inputs": [],
      "name": "totalSupply",
      "outputs": [
        {
          "internalType": "uint256",
          "name": "",
          "type": "uint256"
        }
      ],
      "stateMutability": "view",
      "type": "function",
      "constant": true
    },
    {
      "inputs": [
        {
          "internalType": "address",
          "name": "recipient",
          "type": "address"
        },
        {
          "internalType": "uint256",
          "name": "amount",
          "type": "uint256"
        }
      ],
      "name": "transfer",
      "outputs": [
        {
          "internalType": "bool",
          "name": "",
          "type": "bool"
        }
      ],
      "stateMutability": "nonpayable",
      "type": "function"
    },
    {
      "inputs": [
        {
          "internalType": "address",
          "name": "sender",
          "type": "address"
        },
        {
          "internalType": "address",
          "name": "recipient",
          "type": "address"
        },
        {
          "internalType": "uint256",
          "name": "amount",
          "type": "uint256"
        }
      ],
      "name": "transferFrom",
      "outputs": [
        {
          "internalType": "bool",
          "name": "",
          "type": "bool"
        }
      ],
      "stateMutability": "nonpayable",
      "type": "function"
    },
    {
      "inputs": [],
      "name": "usdc",
      "outputs": [
        {
          "internalType": "contract IERC20",
          "name": "",
          "type": "address"
        }
      ],
      "stateMutability": "view",
      "type": "function",
      "constant": true
    },
    {
      "inputs": [
        {
          "internalType": "uint256",
          "name": "dataAccessTokenCount",
          "type": "uint256"
        }
      ],
      "name": "mint",
      "outputs": [],
      "stateMutability": "nonpayable",
      "type": "function"
    },
    {
      "inputs": [
        {
          "internalType": "uint256",
          "name": "dataAccessTokenCount",
          "type": "uint256"
        }
      ],
      "name": "burn",
      "outputs": [],
      "stateMutability": "nonpayable",
      "type": "function"
    }
  ],
  "bytecode": "0x60a06040523480156200001157600080fd5b5060405162002349380380620023498339818101604052810190620000379190620001dc565b6040518060400160405280601181526020017f446174612041636365737320546f6b656e0000000000000000000000000000008152506040518060400160405280600381526020017f44415400000000000000000000000000000000000000000000000000000000008152508160039080519060200190620000bb92919062000115565b508060049080519060200190620000d492919062000115565b5050508073ffffffffffffffffffffffffffffffffffffffff1660808173ffffffffffffffffffffffffffffffffffffffff1660601b8152505050620002c6565b828054620001239062000242565b90600052602060002090601f01602090048101928262000147576000855562000193565b82601f106200016257805160ff191683800117855562000193565b8280016001018555821562000193579182015b828111156200019257825182559160200191906001019062000175565b5b509050620001a29190620001a6565b5090565b5b80821115620001c1576000816000905550600101620001a7565b5090565b600081519050620001d681620002ac565b92915050565b600060208284031215620001f557620001f4620002a7565b5b60006200020584828501620001c5565b91505092915050565b60006200021b8262000222565b9050919050565b600073ffffffffffffffffffffffffffffffffffffffff82169050919050565b600060028204905060018216806200025b57607f821691505b6020821081141562000272576200027162000278565b5b50919050565b7f4e487b7100000000000000000000000000000000000000000000000000000000600052602260045260246000fd5b600080fd5b620002b7816200020e565b8114620002c357600080fd5b50565b60805160601c612056620002f36000396000818161057f015281816105fd015261087b01526120566000f3fe608060405234801561001057600080fd5b50600436106100ea5760003560e01c806342966c681161008c578063a0712d6811610066578063a0712d6814610261578063a457c2d71461027d578063a9059cbb146102ad578063dd62ed3e146102dd576100ea565b806342966c68146101f757806370a082311461021357806395d89b4114610243576100ea565b806323b872dd116100c857806323b872dd1461015b578063313ce5671461018b57806339509351146101a95780633e413bee146101d9576100ea565b806306fdde03146100ef578063095ea7b31461010d57806318160ddd1461013d575b600080fd5b6100f761030d565b6040516101049190611777565b60405180910390f35b610127600480360381019061012291906113fc565b61039f565b6040516101349190611741565b60405180910390f35b6101456103bd565b6040516101529190611939565b60405180910390f35b610175600480360381019061017091906113a9565b6103c7565b6040516101829190611741565b60405180910390f35b6101936104c8565b6040516101a0919061197d565b60405180910390f35b6101c360048036038101906101be91906113fc565b6104d1565b6040516101d09190611741565b60405180910390f35b6101e161057d565b6040516101ee919061175c565b60405180910390f35b610211600480360381019061020c9190611469565b6105a1565b005b61022d6004803603810190610228919061133c565b6106fe565b60405161023a9190611939565b60405180910390f35b61024b610746565b6040516102589190611777565b60405180910390f35b61027b60048036038101906102769190611469565b6107d8565b005b610297600480360381019061029291906113fc565b610988565b6040516102a49190611741565b60405180910390f35b6102c760048036038101906102c291906113fc565b610a7c565b6040516102d49190611741565b60405180910390f35b6102f760048036038101906102f29190611369565b610a9a565b6040516103049190611939565b60405180910390f35b60606003805461031c90611b75565b80601f016020809104026020016040519081016040528092919081815260200182805461034890611b75565b80156103955780601f1061036a57610100808354040283529160200191610395565b820191906000526020600020905b81548152906001019060200180831161037857829003601f168201915b5050505050905090565b60006103b36103ac610b21565b8484610b29565b6001905092915050565b6000600254905090565b60006103d4848484610cf4565b6000600160008673ffffffffffffffffffffffffffffffffffffffff1673ffffffffffffffffffffffffffffffffffffffff168152602001908152602001600020600061041f610b21565b73ffffffffffffffffffffffffffffffffffffffff1673ffffffffffffffffffffffffffffffffffffffff1681526020019081526020016000205490508281101561049f576040517f08c379a000000000000000000000000000000000000000000000000000000000815260040161049690611879565b60405180910390fd5b6104bc856104ab610b21565b85846104b79190611a95565b610b29565b60019150509392505050565b60006012905090565b60006105736104de610b21565b8484600160006104ec610b21565b73ffffffffffffffffffffffffffffffffffffffff1673ffffffffffffffffffffffffffffffffffffffff16815260200190815260200160002060008873ffffffffffffffffffffffffffffffffffffffff1673ffffffffffffffffffffffffffffffffffffffff1681526020019081526020016000205461056e91906119b4565b610b29565b6001905092915050565b7f000000000000000000000000000000000000000000000000000000000000000081565b600081116105e4576040517f08c379a00000000000000000000000000000000000000000000000000000000081526004016105db90611859565b60405180910390fd5b6105ee3382610f73565b60006105f982611147565b90507f000000000000000000000000000000000000000000000000000000000000000073ffffffffffffffffffffffffffffffffffffffff1663a9059cbb33836040518363ffffffff1660e01b8152600401610656929190611718565b602060405180830381600087803b15801561067057600080fd5b505af1158015610684573d6000803e3d6000fd5b505050506040513d601f19601f820116820180604052508101906106a8919061143c565b503373ffffffffffffffffffffffffffffffffffffffff16427f4e4e7dc5d558587dbc7044256533c305866ab3fdbabbfc0781c499cce700f51783856040516106f2929190611954565b60405180910390a35050565b60008060008373ffffffffffffffffffffffffffffffffffffffff1673ffffffffffffffffffffffffffffffffffffffff168152602001908152602001600020549050919050565b60606004805461075590611b75565b80601f016020809104026020016040519081016040528092919081815260200182805461078190611b75565b80156107ce5780601f106107a3576101008083540402835291602001916107ce565b820191906000526020600020905b8154815290600101906020018083116107b157829003601f168201915b5050505050905090565b6000811161081b576040517f08c379a000000000000000000000000000000000000000000000000000000000815260040161081290611839565b60405180910390fd5b600061082682611147565b90506108376103e8620f4240611178565b811115610879576040517f08c379a0000000000000000000000000000000000000000000000000000000008152600401610870906117f9565b60405180910390fd5b7f000000000000000000000000000000000000000000000000000000000000000073ffffffffffffffffffffffffffffffffffffffff166323b872dd3330846040518463ffffffff1660e01b81526004016108d6939291906116e1565b602060405180830381600087803b1580156108f057600080fd5b505af1158015610904573d6000803e3d6000fd5b505050506040513d601f19601f82011682018060405250810190610928919061143c565b50610933338361118e565b3373ffffffffffffffffffffffffffffffffffffffff16427f5a3e96f397e68b20a43c25f664b628805b877334dadfcc925c6c1a3ad4340458838560405161097c929190611954565b60405180910390a35050565b60008060016000610997610b21565b73ffffffffffffffffffffffffffffffffffffffff1673ffffffffffffffffffffffffffffffffffffffff16815260200190815260200160002060008573ffffffffffffffffffffffffffffffffffffffff1673ffffffffffffffffffffffffffffffffffffffff16815260200190815260200160002054905082811015610a54576040517f08c379a0000000000000000000000000000000000000000000000000000000008152600401610a4b906118f9565b60405180910390fd5b610a71610a5f610b21565b858584610a6c9190611a95565b610b29565b600191505092915050565b6000610a90610a89610b21565b8484610cf4565b6001905092915050565b6000600160008473ffffffffffffffffffffffffffffffffffffffff1673ffffffffffffffffffffffffffffffffffffffff16815260200190815260200160002060008373ffffffffffffffffffffffffffffffffffffffff1673ffffffffffffffffffffffffffffffffffffffff16815260200190815260200160002054905092915050565b600033905090565b600073ffffffffffffffffffffffffffffffffffffffff168373ffffffffffffffffffffffffffffffffffffffff161415610b99576040517f08c379a0000000000000000000000000000000000000000000000000000000008152600401610b90906118d9565b60405180910390fd5b600073ffffffffffffffffffffffffffffffffffffffff168273ffffffffffffffffffffffffffffffffffffffff161415610c09576040517f08c379a0000000000000000000000000000000000000000000000000000000008152600401610c00906117d9565b60405180910390fd5b80600160008573ffffffffffffffffffffffffffffffffffffffff1673ffffffffffffffffffffffffffffffffffffffff16815260200190815260200160002060008473ffffffffffffffffffffffffffffffffffffffff1673ffffffffffffffffffffffffffffffffffffffff168152602001908152602001600020819055508173ffffffffffffffffffffffffffffffffffffffff168373ffffffffffffffffffffffffffffffffffffffff167f8c5be1e5ebec7d5bd14f71427d1e84f3dd0314c0f7b2291e5b200ac8c7c3b92583604051610ce79190611939565b60405180910390a3505050565b600073ffffffffffffffffffffffffffffffffffffffff168373ffffffffffffffffffffffffffffffffffffffff161415610d64576040517f08c379a0000000000000000000000000000000000000000000000000000000008152600401610d5b906118b9565b60405180910390fd5b600073ffffffffffffffffffffffffffffffffffffffff168273ffffffffffffffffffffffffffffffffffffffff161415610dd4576040517f08c379a0000000000000000000000000000000000000000000000000000000008152600401610dcb90611799565b60405180910390fd5b610ddf8383836112e2565b60008060008573ffffffffffffffffffffffffffffffffffffffff1673ffffffffffffffffffffffffffffffffffffffff16815260200190815260200160002054905081811015610e65576040517f08c379a0000000000000000000000000000000000000000000000000000000008152600401610e5c90611819565b60405180910390fd5b8181610e719190611a95565b6000808673ffffffffffffffffffffffffffffffffffffffff1673ffffffffffffffffffffffffffffffffffffffff16815260200190815260200160002081905550816000808573ffffffffffffffffffffffffffffffffffffffff1673ffffffffffffffffffffffffffffffffffffffff1681526020019081526020016000206000828254610f0191906119b4565b925050819055508273ffffffffffffffffffffffffffffffffffffffff168473ffffffffffffffffffffffffffffffffffffffff167fddf252ad1be2c89b69c2b068fc378daa952ba7f163c4a11628f55a4df523b3ef84604051610f659190611939565b60405180910390a350505050565b600073ffffffffffffffffffffffffffffffffffffffff168273ffffffffffffffffffffffffffffffffffffffff161415610fe3576040517f08c379a0000000000000000000000000000000000000000000000000000000008152600401610fda90611899565b60405180910390fd5b610fef826000836112e2565b60008060008473ffffffffffffffffffffffffffffffffffffffff1673ffffffffffffffffffffffffffffffffffffffff16815260200190815260200160002054905081811015611075576040517f08c379a000000000000000000000000000000000000000000000000000000000815260040161106c906117b9565b60405180910390fd5b81816110819190611a95565b6000808573ffffffffffffffffffffffffffffffffffffffff1673ffffffffffffffffffffffffffffffffffffffff1681526020019081526020016000208190555081600260008282546110d59190611a95565b92505081905550600073ffffffffffffffffffffffffffffffffffffffff168373ffffffffffffffffffffffffffffffffffffffff167fddf252ad1be2c89b69c2b068fc378daa952ba7f163c4a11628f55a4df523b3ef8460405161113a9190611939565b60405180910390a3505050565b600061117161116861116184670de0b6b3a76400006112e7565b6001611178565b620f4240611178565b9050919050565b600081836111869190611a3b565b905092915050565b600073ffffffffffffffffffffffffffffffffffffffff168273ffffffffffffffffffffffffffffffffffffffff1614156111fe576040517f08c379a00000000000000000000000000000000000000000000000000000000081526004016111f590611919565b60405180910390fd5b61120a600083836112e2565b806002600082825461121c91906119b4565b92505081905550806000808473ffffffffffffffffffffffffffffffffffffffff1673ffffffffffffffffffffffffffffffffffffffff168152602001908152602001600020600082825461127191906119b4565b925050819055508173ffffffffffffffffffffffffffffffffffffffff16600073ffffffffffffffffffffffffffffffffffffffff167fddf252ad1be2c89b69c2b068fc378daa952ba7f163c4a11628f55a4df523b3ef836040516112d69190611939565b60405180910390a35050565b505050565b600081836112f59190611a0a565b905092915050565b60008135905061130c81611fdb565b92915050565b60008151905061132181611ff2565b92915050565b60008135905061133681612009565b92915050565b60006020828403121561135257611351611c34565b5b6000611360848285016112fd565b91505092915050565b600080604083850312156113805761137f611c34565b5b600061138e858286016112fd565b925050602061139f858286016112fd565b9150509250929050565b6000806000606084860312156113c2576113c1611c34565b5b60006113d0868287016112fd565b93505060206113e1868287016112fd565b92505060406113f286828701611327565b9150509250925092565b6000806040838503121561141357611412611c34565b5b6000611421858286016112fd565b925050602061143285828601611327565b9150509250929050565b60006020828403121561145257611451611c34565b5b600061146084828501611312565b91505092915050565b60006020828403121561147f5761147e611c34565b5b600061148d84828501611327565b91505092915050565b61149f81611ac9565b82525050565b6114ae81611adb565b82525050565b6114bd81611b1e565b82525050565b60006114ce82611998565b6114d881856119a3565b93506114e8818560208601611b42565b6114f181611c39565b840191505092915050565b60006115096023836119a3565b915061151482611c4a565b604082019050919050565b600061152c6022836119a3565b915061153782611c99565b604082019050919050565b600061154f6022836119a3565b915061155a82611ce8565b604082019050919050565b60006115726022836119a3565b915061157d82611d37565b604082019050919050565b60006115956026836119a3565b91506115a082611d86565b604082019050919050565b60006115b8601c836119a3565b91506115c382611dd5565b602082019050919050565b60006115db601f836119a3565b91506115e682611dfe565b602082019050919050565b60006115fe6028836119a3565b915061160982611e27565b604082019050919050565b60006116216021836119a3565b915061162c82611e76565b604082019050919050565b60006116446025836119a3565b915061164f82611ec5565b604082019050919050565b60006116676024836119a3565b915061167282611f14565b604082019050919050565b600061168a6025836119a3565b915061169582611f63565b604082019050919050565b60006116ad601f836119a3565b91506116b882611fb2565b602082019050919050565b6116cc81611b07565b82525050565b6116db81611b11565b82525050565b60006060820190506116f66000830186611496565b6117036020830185611496565b61171060408301846116c3565b949350505050565b600060408201905061172d6000830185611496565b61173a60208301846116c3565b9392505050565b600060208201905061175660008301846114a5565b92915050565b600060208201905061177160008301846114b4565b92915050565b6000602082019050818103600083015261179181846114c3565b905092915050565b600060208201905081810360008301526117b2816114fc565b9050919050565b600060208201905081810360008301526117d28161151f565b9050919050565b600060208201905081810360008301526117f281611542565b9050919050565b6000602082019050818103600083015261181281611565565b9050919050565b6000602082019050818103600083015261183281611588565b9050919050565b60006020820190508181036000830152611852816115ab565b9050919050565b60006020820190508181036000830152611872816115ce565b9050919050565b60006020820190508181036000830152611892816115f1565b9050919050565b600060208201905081810360008301526118b281611614565b9050919050565b600060208201905081810360008301526118d281611637565b9050919050565b600060208201905081810360008301526118f28161165a565b9050919050565b600060208201905081810360008301526119128161167d565b9050919050565b60006020820190508181036000830152611932816116a0565b9050919050565b600060208201905061194e60008301846116c3565b92915050565b600060408201905061196960008301856116c3565b61197660208301846116c3565b9392505050565b600060208201905061199260008301846116d2565b92915050565b600081519050919050565b600082825260208201905092915050565b60006119bf82611b07565b91506119ca83611b07565b9250827fffffffffffffffffffffffffffffffffffffffffffffffffffffffffffffffff038211156119ff576119fe611ba7565b5b828201905092915050565b6000611a1582611b07565b9150611a2083611b07565b925082611a3057611a2f611bd6565b5b828204905092915050565b6000611a4682611b07565b9150611a5183611b07565b9250817fffffffffffffffffffffffffffffffffffffffffffffffffffffffffffffffff0483118215151615611a8a57611a89611ba7565b5b828202905092915050565b6000611aa082611b07565b9150611aab83611b07565b925082821015611abe57611abd611ba7565b5b828203905092915050565b6000611ad482611ae7565b9050919050565b60008115159050919050565b600073ffffffffffffffffffffffffffffffffffffffff82169050919050565b6000819050919050565b600060ff82169050919050565b6000611b2982611b30565b9050919050565b6000611b3b82611ae7565b9050919050565b60005b83811015611b60578082015181840152602081019050611b45565b83811115611b6f576000848401525b50505050565b60006002820490506001821680611b8d57607f821691505b60208210811415611ba157611ba0611c05565b5b50919050565b7f4e487b7100000000000000000000000000000000000000000000000000000000600052601160045260246000fd5b7f4e487b7100000000000000000000000000000000000000000000000000000000600052601260045260246000fd5b7f4e487b7100000000000000000000000000000000000000000000000000000000600052602260045260246000fd5b600080fd5b6000601f19601f8301169050919050565b7f45524332303a207472616e7366657220746f20746865207a65726f206164647260008201527f6573730000000000000000000000000000000000000000000000000000000000602082015250565b7f45524332303a206275726e20616d6f756e7420657863656564732062616c616e60008201527f6365000000000000000000000000000000000000000000000000000000000000602082015250565b7f45524332303a20617070726f766520746f20746865207a65726f20616464726560008201527f7373000000000000000000000000000000000000000000000000000000000000602082015250565b7f4174206d6f7374203130303020555344432063616e2062652065786368616e6760008201527f6564000000000000000000000000000000000000000000000000000000000000602082015250565b7f45524332303a207472616e7366657220616d6f756e742065786365656473206260008201527f616c616e63650000000000000000000000000000000000000000000000000000602082015250565b7f506f73697469766520746f6b656e207265717565737473206f6e6c7900000000600082015250565b7f506f73697469766520746f6b656e207769746864726177616c73206f6e6c7900600082015250565b7f45524332303a207472616e7366657220616d6f756e742065786365656473206160008201527f6c6c6f77616e6365000000000000000000000000000000000000000000000000602082015250565b7f45524332303a206275726e2066726f6d20746865207a65726f2061646472657360008201527f7300000000000000000000000000000000000000000000000000000000000000602082015250565b7f45524332303a207472616e736665722066726f6d20746865207a65726f20616460008201527f6472657373000000000000000000000000000000000000000000000000000000602082015250565b7f45524332303a20617070726f76652066726f6d20746865207a65726f2061646460008201527f7265737300000000000000000000000000000000000000000000000000000000602082015250565b7f45524332303a2064656372656173656420616c6c6f77616e63652062656c6f7760008201527f207a65726f000000000000000000000000000000000000000000000000000000602082015250565b7f45524332303a206d696e7420746f20746865207a65726f206164647265737300600082015250565b611fe481611ac9565b8114611fef57600080fd5b50565b611ffb81611adb565b811461200657600080fd5b50565b61201281611b07565b811461201d57600080fd5b5056fea26469706673582212207d277e47121bebfaeb8efef5ab7620ce7c359c79d1b7685ec79e623d541357de64736f6c63430008060033",
  "immutableReferences": {
    "8": [
      {
        "length": 32,
        "start": 1407
      },
      {
        "length": 32,
        "start": 1533
      },
      {
        "length": 32,
        "start": 2171
      }
    ]
  },
  "source": "// SPDX-License-Identifier: MIT\npragma solidity ^0.8.0;\n\nimport \"@openzeppelin/contracts/token/ERC20/ERC20.sol\";\nimport \"@openzeppelin/contracts/utils/math/SafeMath.sol\";\n\ncontract DataAccessToken is ERC20 {\n  IERC20 public immutable usdc;\n  uint private constant CONVERSION_FACTOR = 1; // 1 USDC = 1*(10**18) DataAccessToken, price: 1 token per 1000 records\n  uint private constant USDC_DECIMALS = 10**6;\n  uint private constant TOKEN_DECIMALS = 10**18;\n\n  event Mint (\n    uint256 indexed timestamp,\n    address indexed targetAddress,\n    uint256 usdcAmount,\n    uint256 dataAccessTokenCount\n  );\n\n  event Burn (\n    uint256 indexed timestamp,\n    address indexed targetAddress,\n    uint256 usdcAmount,\n    uint256 dataAccessTokenCount\n  );\n\n  constructor(address usdcAddress) ERC20('Data Access Token', 'DAT') {\n    usdc = IERC20(usdcAddress);\n  }\n\n  function mint(uint dataAccessTokenCount) external {\n    require(dataAccessTokenCount > 0, 'Positive token requests only');\n    uint usdcAmount = convertToUsdc(dataAccessTokenCount);\n    require(usdcAmount <= SafeMath.mul(1000, USDC_DECIMALS), 'At most 1000 USDC can be exchanged');\n    usdc.transferFrom(msg.sender, address(this), usdcAmount); // lock USDC in this contract\n    _mint(msg.sender, dataAccessTokenCount);\n    emit Mint(block.timestamp, msg.sender, usdcAmount, dataAccessTokenCount);\n  }\n\n  function burn(uint dataAccessTokenCount) external {\n    require(dataAccessTokenCount > 0, 'Positive token withdrawals only');\n    _burn(msg.sender, dataAccessTokenCount);\n    uint usdcAmount = convertToUsdc(dataAccessTokenCount);\n    usdc.transfer(msg.sender, usdcAmount);\n    emit Burn(block.timestamp, msg.sender, usdcAmount, dataAccessTokenCount);\n  }\n\n  function convertToUsdc(uint dataAccessTokenCount) internal pure returns (uint256) {\n    // dataAccessTokenCount (x/10**18) * factor * 10^6\n    return \n        SafeMath.mul(\n          SafeMath.mul(\n            SafeMath.div(dataAccessTokenCount, TOKEN_DECIMALS),\n            CONVERSION_FACTOR), \n          USDC_DECIMALS);\n  }\n}",
  "sourcePath": "/Users/hagenschupp/Documents/Projekte/Ethereum/DataAccess/contract/contracts/DataAccessToken.sol",
  "compiler": {
    "name": "solc",
    "version": "0.8.6+commit.11564f7e.Emscripten.clang"
  },
  "schemaVersion": "3.3.4",
  "updatedAt": "2021-07-04T19:14:29.730Z",
  "networkType": "ethereum",
  "devdoc": {
    "kind": "dev",
    "methods": {
      "allowance(address,address)": {
        "details": "See {IERC20-allowance}."
      },
      "approve(address,uint256)": {
        "details": "See {IERC20-approve}. Requirements: - `spender` cannot be the zero address."
      },
      "balanceOf(address)": {
        "details": "See {IERC20-balanceOf}."
      },
      "decimals()": {
        "details": "Returns the number of decimals used to get its user representation. For example, if `decimals` equals `2`, a balance of `505` tokens should be displayed to a user as `5,05` (`505 / 10 ** 2`). Tokens usually opt for a value of 18, imitating the relationship between Ether and Wei. This is the value {ERC20} uses, unless this function is overloaded; NOTE: This information is only used for _display_ purposes: it in no way affects any of the arithmetic of the contract, including {IERC20-balanceOf} and {IERC20-transfer}."
      },
      "decreaseAllowance(address,uint256)": {
        "details": "Atomically decreases the allowance granted to `spender` by the caller. This is an alternative to {approve} that can be used as a mitigation for problems described in {IERC20-approve}. Emits an {Approval} event indicating the updated allowance. Requirements: - `spender` cannot be the zero address. - `spender` must have allowance for the caller of at least `subtractedValue`."
      },
      "increaseAllowance(address,uint256)": {
        "details": "Atomically increases the allowance granted to `spender` by the caller. This is an alternative to {approve} that can be used as a mitigation for problems described in {IERC20-approve}. Emits an {Approval} event indicating the updated allowance. Requirements: - `spender` cannot be the zero address."
      },
      "name()": {
        "details": "Returns the name of the token."
      },
      "symbol()": {
        "details": "Returns the symbol of the token, usually a shorter version of the name."
      },
      "totalSupply()": {
        "details": "See {IERC20-totalSupply}."
      },
      "transfer(address,uint256)": {
        "details": "See {IERC20-transfer}. Requirements: - `recipient` cannot be the zero address. - the caller must have a balance of at least `amount`."
      },
      "transferFrom(address,address,uint256)": {
        "details": "See {IERC20-transferFrom}. Emits an {Approval} event indicating the updated allowance. This is not required by the EIP. See the note at the beginning of {ERC20}. Requirements: - `sender` and `recipient` cannot be the zero address. - `sender` must have a balance of at least `amount`. - the caller must have allowance for ``sender``'s tokens of at least `amount`."
      }
    },
    "version": 1
  },
  "userdoc": {
    "kind": "user",
    "methods": {},
    "version": 1
  }
}