{
  "contractName": "DataProviderToken",
  "abi": [
    {
      "inputs": [
        {
          "internalType": "address",
          "name": "dataAccessTokenAddress",
          "type": "address"
        },
        {
          "internalType": "address",
          "name": "_signer",
          "type": "address"
        }
      ],
      "stateMutability": "nonpayable",
      "type": "constructor"
    },
    {
      "anonymous": false,
      "inputs": [
        {
          "indexed": true,
          "internalType": "address",
          "name": "owner",
          "type": "address"
        },
        {
          "indexed": true,
          "internalType": "address",
          "name": "spender",
          "type": "address"
        },
        {
          "indexed": false,
          "internalType": "uint256",
          "name": "value",
          "type": "uint256"
        }
      ],
      "name": "Approval",
      "type": "event"
    },
    {
      "anonymous": false,
      "inputs": [
        {
          "indexed": true,
          "internalType": "uint256",
          "name": "timestamp",
          "type": "uint256"
        },
        {
          "indexed": true,
          "internalType": "address",
          "name": "buyer",
          "type": "address"
        },
        {
          "indexed": false,
          "internalType": "uint256",
          "name": "recordCount",
          "type": "uint256"
        }
      ],
      "name": "Buy",
      "type": "event"
    },
    {
      "anonymous": false,
      "inputs": [
        {
          "indexed": true,
          "internalType": "uint256",
          "name": "timestamp",
          "type": "uint256"
        },
        {
          "indexed": true,
          "internalType": "address",
          "name": "provider",
          "type": "address"
        },
        {
          "indexed": false,
          "internalType": "uint256",
          "name": "recordCount",
          "type": "uint256"
        }
      ],
      "name": "Provided",
      "type": "event"
    },
    {
      "anonymous": false,
      "inputs": [
        {
          "indexed": true,
          "internalType": "uint256",
          "name": "timestamp",
          "type": "uint256"
        },
        {
          "indexed": true,
          "internalType": "address",
          "name": "claimer",
          "type": "address"
        },
        {
          "indexed": false,
          "internalType": "uint256",
          "name": "amount",
          "type": "uint256"
        }
      ],
      "name": "RewardClaimed",
      "type": "event"
    },
    {
      "anonymous": false,
      "inputs": [
        {
          "indexed": true,
          "internalType": "address",
          "name": "from",
          "type": "address"
        },
        {
          "indexed": true,
          "internalType": "address",
          "name": "to",
          "type": "address"
        },
        {
          "indexed": false,
          "internalType": "uint256",
          "name": "value",
          "type": "uint256"
        }
      ],
      "name": "Transfer",
      "type": "event"
    },
    {
      "inputs": [],
      "name": "admin",
      "outputs": [
        {
          "internalType": "address",
          "name": "",
          "type": "address"
        }
      ],
      "stateMutability": "view",
      "type": "function",
      "constant": true
    },
    {
      "inputs": [
        {
          "internalType": "address",
          "name": "owner",
          "type": "address"
        },
        {
          "internalType": "address",
          "name": "spender",
          "type": "address"
        }
      ],
      "name": "allowance",
      "outputs": [
        {
          "internalType": "uint256",
          "name": "",
          "type": "uint256"
        }
      ],
      "stateMutability": "view",
      "type": "function",
      "constant": true
    },
    {
      "inputs": [
        {
          "internalType": "address",
          "name": "spender",
          "type": "address"
        },
        {
          "internalType": "uint256",
          "name": "amount",
          "type": "uint256"
        }
      ],
      "name": "approve",
      "outputs": [
        {
          "internalType": "bool",
          "name": "",
          "type": "bool"
        }
      ],
      "stateMutability": "nonpayable",
      "type": "function"
    },
    {
      "inputs": [
        {
          "internalType": "address",
          "name": "account",
          "type": "address"
        }
      ],
      "name": "balanceOf",
      "outputs": [
        {
          "internalType": "uint256",
          "name": "",
          "type": "uint256"
        }
      ],
      "stateMutability": "view",
      "type": "function",
      "constant": true
    },
    {
      "inputs": [],
      "name": "decimals",
      "outputs": [
        {
          "internalType": "uint8",
          "name": "",
          "type": "uint8"
        }
      ],
      "stateMutability": "view",
      "type": "function",
      "constant": true
    },
    {
      "inputs": [
        {
          "internalType": "address",
          "name": "spender",
          "type": "address"
        },
        {
          "internalType": "uint256",
          "name": "subtractedValue",
          "type": "uint256"
        }
      ],
      "name": "decreaseAllowance",
      "outputs": [
        {
          "internalType": "bool",
          "name": "",
          "type": "bool"
        }
      ],
      "stateMutability": "nonpayable",
      "type": "function"
    },
    {
      "inputs": [
        {
          "internalType": "address",
          "name": "spender",
          "type": "address"
        },
        {
          "internalType": "uint256",
          "name": "addedValue",
          "type": "uint256"
        }
      ],
      "name": "increaseAllowance",
      "outputs": [
        {
          "internalType": "bool",
          "name": "",
          "type": "bool"
        }
      ],
      "stateMutability": "nonpayable",
      "type": "function"
    },
    {
      "inputs": [],
      "name": "name",
      "outputs": [
        {
          "internalType": "string",
          "name": "",
          "type": "string"
        }
      ],
      "stateMutability": "view",
      "type": "function",
      "constant": true
    },
    {
      "inputs": [],
      "name": "symbol",
      "outputs": [
        {
          "internalType": "string",
          "name": "",
          "type": "string"
        }
      ],
      "stateMutability": "view",
      "type": "function",
      "constant": true
    },
    {
      "inputs": [],
      "name": "totalSupply",
      "outputs": [
        {
          "internalType": "uint256",
          "name": "",
          "type": "uint256"
        }
      ],
      "stateMutability": "view",
      "type": "function",
      "constant": true
    },
    {
      "inputs": [
        {
          "internalType": "address",
          "name": "recipient",
          "type": "address"
        },
        {
          "internalType": "uint256",
          "name": "amount",
          "type": "uint256"
        }
      ],
      "name": "transfer",
      "outputs": [
        {
          "internalType": "bool",
          "name": "",
          "type": "bool"
        }
      ],
      "stateMutability": "nonpayable",
      "type": "function"
    },
    {
      "inputs": [
        {
          "internalType": "address",
          "name": "sender",
          "type": "address"
        },
        {
          "internalType": "address",
          "name": "recipient",
          "type": "address"
        },
        {
          "internalType": "uint256",
          "name": "amount",
          "type": "uint256"
        }
      ],
      "name": "transferFrom",
      "outputs": [
        {
          "internalType": "bool",
          "name": "",
          "type": "bool"
        }
      ],
      "stateMutability": "nonpayable",
      "type": "function"
    },
    {
      "inputs": [
        {
          "internalType": "uint256",
          "name": "recordCount",
          "type": "uint256"
        },
        {
          "internalType": "uint256",
          "name": "timestamp",
          "type": "uint256"
        },
        {
          "internalType": "bytes",
          "name": "signature",
          "type": "bytes"
        }
      ],
      "name": "provide",
      "outputs": [],
      "stateMutability": "nonpayable",
      "type": "function"
    },
    {
      "inputs": [
        {
          "internalType": "uint256",
          "name": "recordCount",
          "type": "uint256"
        }
      ],
      "name": "buy",
      "outputs": [],
      "stateMutability": "nonpayable",
      "type": "function"
    },
    {
      "inputs": [],
      "name": "claim",
      "outputs": [],
      "stateMutability": "nonpayable",
      "type": "function"
    },
    {
      "inputs": [],
      "name": "claimOwner",
      "outputs": [],
      "stateMutability": "nonpayable",
      "type": "function"
    },
    {
      "inputs": [],
      "name": "showUnclaimed",
      "outputs": [
        {
          "internalType": "uint256",
          "name": "",
          "type": "uint256"
        }
      ],
      "stateMutability": "view",
      "type": "function",
      "constant": true
    },
    {
      "inputs": [],
      "name": "showUnclaimedOwner",
      "outputs": [
        {
          "internalType": "uint256",
          "name": "",
          "type": "uint256"
        }
      ],
      "stateMutability": "view",
      "type": "function",
      "constant": true
    }
  ],
  "bytecode": "0x60e06040523373ffffffffffffffffffffffffffffffffffffffff1660809073ffffffffffffffffffffffffffffffffffffffff1660601b8152503480156200004757600080fd5b506040516200384c3803806200384c83398181016040528101906200006d91906200024a565b6040518060400160405280601181526020017f4461746150726f7669646572546f6b656e0000000000000000000000000000008152506040518060400160405280600381526020017f44505400000000000000000000000000000000000000000000000000000000008152508160039080519060200190620000f192919062000183565b5080600490805190602001906200010a92919062000183565b5050508173ffffffffffffffffffffffffffffffffffffffff1660a08173ffffffffffffffffffffffffffffffffffffffff1660601b815250508073ffffffffffffffffffffffffffffffffffffffff1660c08173ffffffffffffffffffffffffffffffffffffffff1660601b81525050505062000349565b8280546200019190620002c5565b90600052602060002090601f016020900481019282620001b5576000855562000201565b82601f10620001d057805160ff191683800117855562000201565b8280016001018555821562000201579182015b8281111562000200578251825591602001919060010190620001e3565b5b50905062000210919062000214565b5090565b5b808211156200022f57600081600090555060010162000215565b5090565b60008151905062000244816200032f565b92915050565b600080604083850312156200026457620002636200032a565b5b6000620002748582860162000233565b9250506020620002878582860162000233565b9150509250929050565b60006200029e82620002a5565b9050919050565b600073ffffffffffffffffffffffffffffffffffffffff82169050919050565b60006002820490506001821680620002de57607f821691505b60208210811415620002f557620002f4620002fb565b5b50919050565b7f4e487b7100000000000000000000000000000000000000000000000000000000600052602260045260246000fd5b600080fd5b6200033a8162000291565b81146200034657600080fd5b50565b60805160601c60a05160601c60c05160601c613499620003b360003960006117b601526000818161068901528181610a1001528181610df901528181610ee40152610fd00152600081816105fb015281816106c501528181610b12015261132301526134996000f3fe608060405234801561001057600080fd5b50600436106101165760003560e01c8063569eb39a116100a2578063a9059cbb11610071578063a9059cbb146102d1578063d96a094a14610301578063dd62ed3e1461031d578063e305c4311461034d578063f851a4401461036b57610116565b8063569eb39a1461023557806370a082311461025357806395d89b4114610283578063a457c2d7146102a157610116565b8063313ce567116100e9578063313ce567146101b757806339509351146101d55780633bd1adec14610205578063499d7a921461020f5780634e71d92d1461022b57610116565b806306fdde031461011b578063095ea7b31461013957806318160ddd1461016957806323b872dd14610187575b600080fd5b610123610389565b6040516101309190612806565b60405180910390f35b610153600480360381019061014e919061219c565b61041b565b60405161016091906127a6565b60405180910390f35b610171610439565b60405161017e9190612a88565b60405180910390f35b6101a1600480360381019061019c9190612149565b610443565b6040516101ae91906127a6565b60405180910390f35b6101bf610544565b6040516101cc9190612aa3565b60405180910390f35b6101ef60048036038101906101ea919061219c565b61054d565b6040516101fc91906127a6565b60405180910390f35b61020d6105f9565b005b61022960048036038101906102249190612263565b6107b2565b005b610233610903565b005b61023d610b0e565b60405161024a9190612a88565b60405180910390f35b61026d600480360381019061026891906120dc565b610ba6565b60405161027a9190612a88565b60405180910390f35b61028b610bee565b6040516102989190612806565b60405180910390f35b6102bb60048036038101906102b6919061219c565b610c80565b6040516102c891906127a6565b60405180910390f35b6102eb60048036038101906102e6919061219c565b610d74565b6040516102f891906127a6565b60405180910390f35b61031b60048036038101906103169190612209565b610d92565b005b61033760048036038101906103329190612109565b611253565b6040516103449190612a88565b60405180910390f35b6103556112da565b6040516103629190612a88565b60405180910390f35b610373611321565b6040516103809190612702565b60405180910390f35b60606003805461039890612d3e565b80601f01602080910402602001604051908101604052809291908181526020018280546103c490612d3e565b80156104115780601f106103e657610100808354040283529160200191610411565b820191906000526020600020905b8154815290600101906020018083116103f457829003601f168201915b5050505050905090565b600061042f610428611345565b848461134d565b6001905092915050565b6000600254905090565b6000610450848484611518565b6000600160008673ffffffffffffffffffffffffffffffffffffffff1673ffffffffffffffffffffffffffffffffffffffff168152602001908152602001600020600061049b611345565b73ffffffffffffffffffffffffffffffffffffffff1673ffffffffffffffffffffffffffffffffffffffff1681526020019081526020016000205490508281101561051b576040517f08c379a000000000000000000000000000000000000000000000000000000000815260040161051290612948565b60405180910390fd5b61053885610527611345565b85846105339190612c69565b61134d565b60019150509392505050565b60006012905090565b60006105ef61055a611345565b848460016000610568611345565b73ffffffffffffffffffffffffffffffffffffffff1673ffffffffffffffffffffffffffffffffffffffff16815260200190815260200160002060008873ffffffffffffffffffffffffffffffffffffffff1673ffffffffffffffffffffffffffffffffffffffff168152602001908152602001600020546105ea9190612b51565b61134d565b6001905092915050565b7f000000000000000000000000000000000000000000000000000000000000000073ffffffffffffffffffffffffffffffffffffffff163373ffffffffffffffffffffffffffffffffffffffff1614610687576040517f08c379a000000000000000000000000000000000000000000000000000000000815260040161067e90612988565b60405180910390fd5b7f000000000000000000000000000000000000000000000000000000000000000073ffffffffffffffffffffffffffffffffffffffff1663a9059cbb7f00000000000000000000000000000000000000000000000000000000000000006008546040518363ffffffff1660e01b815260040161070492919061277d565b602060405180830381600087803b15801561071e57600080fd5b505af1158015610732573d6000803e3d6000fd5b505050506040513d601f19601f8201168201806040525081019061075691906121dc565b503373ffffffffffffffffffffffffffffffffffffffff16427f24b5efa61dd1cfc659205a97fb8ed868f3cb8c81922bab2b96423e5de1de2cb76008546040516107a09190612a88565b60405180910390a36000600881905550565b60006107c084843385611797565b905080610802576040517f08c379a00000000000000000000000000000000000000000000000000000000081526004016107f990612928565b60405180910390fd5b6009826040516108129190612688565b908152602001604051809103902060009054906101000a900460ff161561086e576040517f08c379a000000000000000000000000000000000000000000000000000000000815260040161086590612908565b60405180910390fd5b6108783385611818565b600160098360405161088a9190612688565b908152602001604051809103902060006101000a81548160ff0219169083151502179055503373ffffffffffffffffffffffffffffffffffffffff16427ecd5a384f351d1c4f493087f7aa99325def324b1f8ea0c302b3e04dedd003eb866040516108f59190612a88565b60405180910390a350505050565b6000600760003373ffffffffffffffffffffffffffffffffffffffff1673ffffffffffffffffffffffffffffffffffffffff1681526020019081526020016000205411610985576040517f08c379a000000000000000000000000000000000000000000000000000000000815260040161097c90612828565b60405180910390fd5b6000600760003373ffffffffffffffffffffffffffffffffffffffff1673ffffffffffffffffffffffffffffffffffffffff1681526020019081526020016000205490506000600760003373ffffffffffffffffffffffffffffffffffffffff1673ffffffffffffffffffffffffffffffffffffffff168152602001908152602001600020819055507f000000000000000000000000000000000000000000000000000000000000000073ffffffffffffffffffffffffffffffffffffffff1663a9059cbb33836040518363ffffffff1660e01b8152600401610a6992919061277d565b602060405180830381600087803b158015610a8357600080fd5b505af1158015610a97573d6000803e3d6000fd5b505050506040513d601f19601f82011682018060405250810190610abb91906121dc565b503373ffffffffffffffffffffffffffffffffffffffff16427f24b5efa61dd1cfc659205a97fb8ed868f3cb8c81922bab2b96423e5de1de2cb783604051610b039190612a88565b60405180910390a350565b60007f000000000000000000000000000000000000000000000000000000000000000073ffffffffffffffffffffffffffffffffffffffff163373ffffffffffffffffffffffffffffffffffffffff1614610b9e576040517f08c379a0000000000000000000000000000000000000000000000000000000008152600401610b9590612988565b60405180910390fd5b600854905090565b60008060008373ffffffffffffffffffffffffffffffffffffffff1673ffffffffffffffffffffffffffffffffffffffff168152602001908152602001600020549050919050565b606060048054610bfd90612d3e565b80601f0160208091040260200160405190810160405280929190818152602001828054610c2990612d3e565b8015610c765780601f10610c4b57610100808354040283529160200191610c76565b820191906000526020600020905b815481529060010190602001808311610c5957829003601f168201915b5050505050905090565b60008060016000610c8f611345565b73ffffffffffffffffffffffffffffffffffffffff1673ffffffffffffffffffffffffffffffffffffffff16815260200190815260200160002060008573ffffffffffffffffffffffffffffffffffffffff1673ffffffffffffffffffffffffffffffffffffffff16815260200190815260200160002054905082811015610d4c576040517f08c379a0000000000000000000000000000000000000000000000000000000008152600401610d4390612a48565b60405180910390fd5b610d69610d57611345565b858584610d649190612c69565b61134d565b600191505092915050565b6000610d88610d81611345565b8484611518565b6001905092915050565b60008111610dd5576040517f08c379a0000000000000000000000000000000000000000000000000000000008152600401610dcc90612888565b60405180910390fd5b6000610df4610de6836103e861196c565b670de0b6b3a7640000611982565b9050807f000000000000000000000000000000000000000000000000000000000000000073ffffffffffffffffffffffffffffffffffffffff166370a08231336040518263ffffffff1660e01b8152600401610e509190612702565b60206040518083038186803b158015610e6857600080fd5b505afa158015610e7c573d6000803e3d6000fd5b505050506040513d601f19601f82011682018060405250810190610ea09190612236565b1015610ee1576040517f08c379a0000000000000000000000000000000000000000000000000000000008152600401610ed890612a28565b60405180910390fd5b807f000000000000000000000000000000000000000000000000000000000000000073ffffffffffffffffffffffffffffffffffffffff1663dd62ed3e33306040518363ffffffff1660e01b8152600401610f3d92919061271d565b60206040518083038186803b158015610f5557600080fd5b505afa158015610f69573d6000803e3d6000fd5b505050506040513d601f19601f82011682018060405250810190610f8d9190612236565b1015610fce576040517f08c379a0000000000000000000000000000000000000000000000000000000008152600401610fc590612868565b60405180910390fd5b7f000000000000000000000000000000000000000000000000000000000000000073ffffffffffffffffffffffffffffffffffffffff166323b872dd3330846040518463ffffffff1660e01b815260040161102b93929190612746565b602060405180830381600087803b15801561104557600080fd5b505af1158015611059573d6000803e3d6000fd5b505050506040513d601f19601f8201168201806040525081019061107d91906121dc565b50600061109561108e836005611982565b606461196c565b90506000805b6005805490508110156111db576000600582815481106110be576110bd612ede565b5b9060005260206000200160009054906101000a900473ffffffffffffffffffffffffffffffffffffffff16905060006110f682610ba6565b11611136576040517f08c379a000000000000000000000000000000000000000000000000000000000815260040161112d90612a08565b60405180910390fd5b600061114182610ba6565b9050600061115f6111528784611982565b61115a610439565b61196c565b905080600760008573ffffffffffffffffffffffffffffffffffffffff1673ffffffffffffffffffffffffffffffffffffffff16815260200190815260200160002060008282546111b09190612b51565b9250508190555080856111c39190612b51565b945050505080806111d390612da1565b91505061109b565b506111e68382611998565b600860008282546111f79190612b51565b925050819055503373ffffffffffffffffffffffffffffffffffffffff16427f3b599f6217e39be59216b60e543ce0d4c7d534fe64dd9d962334924e7819894e866040516112459190612a88565b60405180910390a350505050565b6000600160008473ffffffffffffffffffffffffffffffffffffffff1673ffffffffffffffffffffffffffffffffffffffff16815260200190815260200160002060008373ffffffffffffffffffffffffffffffffffffffff1673ffffffffffffffffffffffffffffffffffffffff16815260200190815260200160002054905092915050565b6000600760003373ffffffffffffffffffffffffffffffffffffffff1673ffffffffffffffffffffffffffffffffffffffff16815260200190815260200160002054905090565b7f000000000000000000000000000000000000000000000000000000000000000081565b600033905090565b600073ffffffffffffffffffffffffffffffffffffffff168373ffffffffffffffffffffffffffffffffffffffff1614156113bd576040517f08c379a00000000000000000000000000000000000000000000000000000000081526004016113b4906129a8565b60405180910390fd5b600073ffffffffffffffffffffffffffffffffffffffff168273ffffffffffffffffffffffffffffffffffffffff16141561142d576040517f08c379a0000000000000000000000000000000000000000000000000000000008152600401611424906128a8565b60405180910390fd5b80600160008573ffffffffffffffffffffffffffffffffffffffff1673ffffffffffffffffffffffffffffffffffffffff16815260200190815260200160002060008473ffffffffffffffffffffffffffffffffffffffff1673ffffffffffffffffffffffffffffffffffffffff168152602001908152602001600020819055508173ffffffffffffffffffffffffffffffffffffffff168373ffffffffffffffffffffffffffffffffffffffff167f8c5be1e5ebec7d5bd14f71427d1e84f3dd0314c0f7b2291e5b200ac8c7c3b9258360405161150b9190612a88565b60405180910390a3505050565b600073ffffffffffffffffffffffffffffffffffffffff168373ffffffffffffffffffffffffffffffffffffffff161415611588576040517f08c379a000000000000000000000000000000000000000000000000000000000815260040161157f90612968565b60405180910390fd5b600073ffffffffffffffffffffffffffffffffffffffff168273ffffffffffffffffffffffffffffffffffffffff1614156115f8576040517f08c379a00000000000000000000000000000000000000000000000000000000081526004016115ef90612848565b60405180910390fd5b6116038383836119ae565b60008060008573ffffffffffffffffffffffffffffffffffffffff1673ffffffffffffffffffffffffffffffffffffffff16815260200190815260200160002054905081811015611689576040517f08c379a0000000000000000000000000000000000000000000000000000000008152600401611680906128e8565b60405180910390fd5b81816116959190612c69565b6000808673ffffffffffffffffffffffffffffffffffffffff1673ffffffffffffffffffffffffffffffffffffffff16815260200190815260200160002081905550816000808573ffffffffffffffffffffffffffffffffffffffff1673ffffffffffffffffffffffffffffffffffffffff16815260200190815260200160002060008282546117259190612b51565b925050819055508273ffffffffffffffffffffffffffffffffffffffff168473ffffffffffffffffffffffffffffffffffffffff167fddf252ad1be2c89b69c2b068fc378daa952ba7f163c4a11628f55a4df523b3ef846040516117899190612a88565b60405180910390a350505050565b6000806117a5868686611b34565b905060006117b282611b6a565b90507f000000000000000000000000000000000000000000000000000000000000000073ffffffffffffffffffffffffffffffffffffffff166117f58286611b9a565b73ffffffffffffffffffffffffffffffffffffffff161492505050949350505050565b600073ffffffffffffffffffffffffffffffffffffffff168273ffffffffffffffffffffffffffffffffffffffff161415611888576040517f08c379a000000000000000000000000000000000000000000000000000000000815260040161187f90612a68565b60405180910390fd5b611894600083836119ae565b80600260008282546118a69190612b51565b92505081905550806000808473ffffffffffffffffffffffffffffffffffffffff1673ffffffffffffffffffffffffffffffffffffffff16815260200190815260200160002060008282546118fb9190612b51565b925050819055508173ffffffffffffffffffffffffffffffffffffffff16600073ffffffffffffffffffffffffffffffffffffffff167fddf252ad1be2c89b69c2b068fc378daa952ba7f163c4a11628f55a4df523b3ef836040516119609190612a88565b60405180910390a35050565b6000818361197a9190612bde565b905092915050565b600081836119909190612c0f565b905092915050565b600081836119a69190612c69565b905092915050565b806119b884610ba6565b1480156119f25750600073ffffffffffffffffffffffffffffffffffffffff168373ffffffffffffffffffffffffffffffffffffffff1614155b15611a96576000600660008573ffffffffffffffffffffffffffffffffffffffff1673ffffffffffffffffffffffffffffffffffffffff16815260200190815260200160002060000160009054906101000a900460ff16905080611a8b576040517f08c379a0000000000000000000000000000000000000000000000000000000008152600401611a82906129c8565b60405180910390fd5b611a9484611c09565b505b600073ffffffffffffffffffffffffffffffffffffffff168273ffffffffffffffffffffffffffffffffffffffff1614611b2f576000600660008473ffffffffffffffffffffffffffffffffffffffff1673ffffffffffffffffffffffffffffffffffffffff16815260200190815260200160002060000160009054906101000a900460ff16905080611b2d57611b2c83611e7b565b5b505b505050565b6000838383604051602001611b4b939291906126c5565b6040516020818303038152906040528051906020012090509392505050565b600081604051602001611b7d919061269f565b604051602081830303815290604052805190602001209050919050565b600080600080611ba985611f94565b92509250925060018682858560405160008152602001604052604051611bd294939291906127c1565b6020604051602081039080840390855afa158015611bf4573d6000803e3d6000fd5b50505060206040510351935050505092915050565b6000600660008373ffffffffffffffffffffffffffffffffffffffff1673ffffffffffffffffffffffffffffffffffffffff1681526020019081526020016000206001015490506001600580549050611c629190612c69565b8114611dd257600060056001600580549050611c7e9190612c69565b81548110611c8f57611c8e612ede565b5b9060005260206000200160009054906101000a900473ffffffffffffffffffffffffffffffffffffffff169050600073ffffffffffffffffffffffffffffffffffffffff168173ffffffffffffffffffffffffffffffffffffffff161415611d2c576040517f08c379a0000000000000000000000000000000000000000000000000000000008152600401611d23906128c8565b60405180910390fd5b8060058381548110611d4157611d40612ede565b5b9060005260206000200160006101000a81548173ffffffffffffffffffffffffffffffffffffffff021916908373ffffffffffffffffffffffffffffffffffffffff16021790555081600660008373ffffffffffffffffffffffffffffffffffffffff1673ffffffffffffffffffffffffffffffffffffffff16815260200190815260200160002060010181905550505b6005805480611de457611de3612eaf565b5b6001900381819060005260206000200160006101000a81549073ffffffffffffffffffffffffffffffffffffffff02191690559055600660008373ffffffffffffffffffffffffffffffffffffffff1673ffffffffffffffffffffffffffffffffffffffff168152602001908152602001600020600080820160006101000a81549060ff0219169055600182016000905550505050565b6005819080600181540180825580915050600190039060005260206000200160009091909190916101000a81548173ffffffffffffffffffffffffffffffffffffffff021916908373ffffffffffffffffffffffffffffffffffffffff1602179055506001600660008373ffffffffffffffffffffffffffffffffffffffff1673ffffffffffffffffffffffffffffffffffffffff16815260200190815260200160002060000160006101000a81548160ff0219169083151502179055506001600580549050611f4b9190612c69565b600660008373ffffffffffffffffffffffffffffffffffffffff1673ffffffffffffffffffffffffffffffffffffffff1681526020019081526020016000206001018190555050565b60008060006041845114611fdd576040517f08c379a0000000000000000000000000000000000000000000000000000000008152600401611fd4906129e8565b60405180910390fd5b602084015192506040840151915060ff6041850151169050601b8160ff16101561201157601b8161200e9190612ba7565b90505b9193909250565b600061202b61202684612ae3565b612abe565b90508281526020810184848401111561204757612046612f41565b5b612052848285612cfc565b509392505050565b6000813590506120698161341e565b92915050565b60008151905061207e81613435565b92915050565b600082601f83011261209957612098612f3c565b5b81356120a9848260208601612018565b91505092915050565b6000813590506120c18161344c565b92915050565b6000815190506120d68161344c565b92915050565b6000602082840312156120f2576120f1612f4b565b5b60006121008482850161205a565b91505092915050565b600080604083850312156121205761211f612f4b565b5b600061212e8582860161205a565b925050602061213f8582860161205a565b9150509250929050565b60008060006060848603121561216257612161612f4b565b5b60006121708682870161205a565b93505060206121818682870161205a565b9250506040612192868287016120b2565b9150509250925092565b600080604083850312156121b3576121b2612f4b565b5b60006121c18582860161205a565b92505060206121d2858286016120b2565b9150509250929050565b6000602082840312156121f2576121f1612f4b565b5b60006122008482850161206f565b91505092915050565b60006020828403121561221f5761221e612f4b565b5b600061222d848285016120b2565b91505092915050565b60006020828403121561224c5761224b612f4b565b5b600061225a848285016120c7565b91505092915050565b60008060006060848603121561227c5761227b612f4b565b5b600061228a868287016120b2565b935050602061229b868287016120b2565b925050604084013567ffffffffffffffff8111156122bc576122bb612f46565b5b6122c886828701612084565b9150509250925092565b6122db81612c9d565b82525050565b6122f26122ed82612c9d565b612dea565b82525050565b61230181612caf565b82525050565b61231081612cbb565b82525050565b61232761232282612cbb565b612dfc565b82525050565b600061233882612b14565b6123428185612b2a565b9350612352818560208601612d0b565b80840191505092915050565b600061236982612b1f565b6123738185612b35565b9350612383818560208601612d0b565b61238c81612f50565b840191505092915050565b60006123a4601183612b35565b91506123af82612f6e565b602082019050919050565b60006123c7602383612b35565b91506123d282612f97565b604082019050919050565b60006123ea601c83612b46565b91506123f582612fe6565b601c82019050919050565b600061240d601a83612b35565b91506124188261300f565b602082019050919050565b6000612430602c83612b35565b915061243b82613038565b604082019050919050565b6000612453602283612b35565b915061245e82613087565b604082019050919050565b6000612476602b83612b35565b9150612481826130d6565b604082019050919050565b6000612499602683612b35565b91506124a482613125565b604082019050919050565b60006124bc601983612b35565b91506124c782613174565b602082019050919050565b60006124df601383612b35565b91506124ea8261319d565b602082019050919050565b6000612502602883612b35565b915061250d826131c6565b604082019050919050565b6000612525602583612b35565b915061253082613215565b604082019050919050565b6000612548603083612b35565b915061255382613264565b604082019050919050565b600061256b602483612b35565b9150612576826132b3565b604082019050919050565b600061258e601e83612b35565b915061259982613302565b602082019050919050565b60006125b1601883612b35565b91506125bc8261332b565b602082019050919050565b60006125d4601e83612b35565b91506125df82613354565b602082019050919050565b60006125f7601883612b35565b91506126028261337d565b602082019050919050565b600061261a602583612b35565b9150612625826133a6565b604082019050919050565b600061263d601f83612b35565b9150612648826133f5565b602082019050919050565b61265c81612ce5565b82525050565b61267361266e82612ce5565b612e18565b82525050565b61268281612cef565b82525050565b6000612694828461232d565b915081905092915050565b60006126aa826123dd565b91506126b68284612316565b60208201915081905092915050565b60006126d18286612662565b6020820191506126e18285612662565b6020820191506126f182846122e1565b601482019150819050949350505050565b600060208201905061271760008301846122d2565b92915050565b600060408201905061273260008301856122d2565b61273f60208301846122d2565b9392505050565b600060608201905061275b60008301866122d2565b61276860208301856122d2565b6127756040830184612653565b949350505050565b600060408201905061279260008301856122d2565b61279f6020830184612653565b9392505050565b60006020820190506127bb60008301846122f8565b92915050565b60006080820190506127d66000830187612307565b6127e36020830186612679565b6127f06040830185612307565b6127fd6060830184612307565b95945050505050565b60006020820190508181036000830152612820818461235e565b905092915050565b6000602082019050818103600083015261284181612397565b9050919050565b60006020820190508181036000830152612861816123ba565b9050919050565b6000602082019050818103600083015261288181612400565b9050919050565b600060208201905081810360008301526128a181612423565b9050919050565b600060208201905081810360008301526128c181612446565b9050919050565b600060208201905081810360008301526128e181612469565b9050919050565b600060208201905081810360008301526129018161248c565b9050919050565b60006020820190508181036000830152612921816124af565b9050919050565b60006020820190508181036000830152612941816124d2565b9050919050565b60006020820190508181036000830152612961816124f5565b9050919050565b6000602082019050818103600083015261298181612518565b9050919050565b600060208201905081810360008301526129a18161253b565b9050919050565b600060208201905081810360008301526129c18161255e565b9050919050565b600060208201905081810360008301526129e181612581565b9050919050565b60006020820190508181036000830152612a01816125a4565b9050919050565b60006020820190508181036000830152612a21816125c7565b9050919050565b60006020820190508181036000830152612a41816125ea565b9050919050565b60006020820190508181036000830152612a618161260d565b9050919050565b60006020820190508181036000830152612a8181612630565b9050919050565b6000602082019050612a9d6000830184612653565b92915050565b6000602082019050612ab86000830184612679565b92915050565b6000612ac8612ad9565b9050612ad48282612d70565b919050565b6000604051905090565b600067ffffffffffffffff821115612afe57612afd612f0d565b5b612b0782612f50565b9050602081019050919050565b600081519050919050565b600081519050919050565b600081905092915050565b600082825260208201905092915050565b600081905092915050565b6000612b5c82612ce5565b9150612b6783612ce5565b9250827fffffffffffffffffffffffffffffffffffffffffffffffffffffffffffffffff03821115612b9c57612b9b612e22565b5b828201905092915050565b6000612bb282612cef565b9150612bbd83612cef565b92508260ff03821115612bd357612bd2612e22565b5b828201905092915050565b6000612be982612ce5565b9150612bf483612ce5565b925082612c0457612c03612e51565b5b828204905092915050565b6000612c1a82612ce5565b9150612c2583612ce5565b9250817fffffffffffffffffffffffffffffffffffffffffffffffffffffffffffffffff0483118215151615612c5e57612c5d612e22565b5b828202905092915050565b6000612c7482612ce5565b9150612c7f83612ce5565b925082821015612c9257612c91612e22565b5b828203905092915050565b6000612ca882612cc5565b9050919050565b60008115159050919050565b6000819050919050565b600073ffffffffffffffffffffffffffffffffffffffff82169050919050565b6000819050919050565b600060ff82169050919050565b82818337600083830152505050565b60005b83811015612d29578082015181840152602081019050612d0e565b83811115612d38576000848401525b50505050565b60006002820490506001821680612d5657607f821691505b60208210811415612d6a57612d69612e80565b5b50919050565b612d7982612f50565b810181811067ffffffffffffffff82111715612d9857612d97612f0d565b5b80604052505050565b6000612dac82612ce5565b91507fffffffffffffffffffffffffffffffffffffffffffffffffffffffffffffffff821415612ddf57612dde612e22565b5b600182019050919050565b6000612df582612e06565b9050919050565b6000819050919050565b6000612e1182612f61565b9050919050565b6000819050919050565b7f4e487b7100000000000000000000000000000000000000000000000000000000600052601160045260246000fd5b7f4e487b7100000000000000000000000000000000000000000000000000000000600052601260045260246000fd5b7f4e487b7100000000000000000000000000000000000000000000000000000000600052602260045260246000fd5b7f4e487b7100000000000000000000000000000000000000000000000000000000600052603160045260246000fd5b7f4e487b7100000000000000000000000000000000000000000000000000000000600052603260045260246000fd5b7f4e487b7100000000000000000000000000000000000000000000000000000000600052604160045260246000fd5b600080fd5b600080fd5b600080fd5b600080fd5b6000601f19601f8301169050919050565b60008160601b9050919050565b7f4e6f20756e636c61696d65642072656e74000000000000000000000000000000600082015250565b7f45524332303a207472616e7366657220746f20746865207a65726f206164647260008201527f6573730000000000000000000000000000000000000000000000000000000000602082015250565b7f19457468657265756d205369676e6564204d6573736167653a0a333200000000600082015250565b7f416c6c6f77616e6365206e6f74206c6172676520656e6f756768000000000000600082015250565b7f526571756573747320666f7220706f736974697665206e756d626572206f662060008201527f7265636f726473206f6e6c790000000000000000000000000000000000000000602082015250565b7f45524332303a20617070726f766520746f20746865207a65726f20616464726560008201527f7373000000000000000000000000000000000000000000000000000000000000602082015250565b7f457870656374696e6720686f6c646572206e6f7420746f20626520746865206e60008201527f756c6c2061646472657373000000000000000000000000000000000000000000602082015250565b7f45524332303a207472616e7366657220616d6f756e742065786365656473206260008201527f616c616e63650000000000000000000000000000000000000000000000000000602082015250565b7f5369676e617475726520616c726561647920636c61696d656400000000000000600082015250565b7f5369676e6174757265206e6f742076616c696400000000000000000000000000600082015250565b7f45524332303a207472616e7366657220616d6f756e742065786365656473206160008201527f6c6c6f77616e6365000000000000000000000000000000000000000000000000602082015250565b7f45524332303a207472616e736665722066726f6d20746865207a65726f20616460008201527f6472657373000000000000000000000000000000000000000000000000000000602082015250565b7f4f6e6c79207468652061646d696e20697320616c6c6f77656420746f2063616c60008201527f6c2074686973206f7065726174696f6e00000000000000000000000000000000602082015250565b7f45524332303a20617070726f76652066726f6d20746865207a65726f2061646460008201527f7265737300000000000000000000000000000000000000000000000000000000602082015250565b7f457870656374696e6720686f6c64657220746f2062652070726573656e740000600082015250565b7f496e76616c6964207369676e6174757265206c656e6774680000000000000000600082015250565b7f486f6c646572206172726179206973206e6f7420757020746f20646174650000600082015250565b7f42616c616e6365206e6f74206c6172676520656e6f7567680000000000000000600082015250565b7f45524332303a2064656372656173656420616c6c6f77616e63652062656c6f7760008201527f207a65726f000000000000000000000000000000000000000000000000000000602082015250565b7f45524332303a206d696e7420746f20746865207a65726f206164647265737300600082015250565b61342781612c9d565b811461343257600080fd5b50565b61343e81612caf565b811461344957600080fd5b50565b61345581612ce5565b811461346057600080fd5b5056fea26469706673582212206b5136940982708253355ac0ba2dbbc37faeee5666364913c2d6c7c15fe47ba764736f6c63430008060033",
  "immutableReferences": {
    "202": [
      {
        "length": 32,
        "start": 1673
      },
      {
        "length": 32,
        "start": 2576
      },
      {
        "length": 32,
        "start": 3577
      },
      {
        "length": 32,
        "start": 3812
      },
      {
        "length": 32,
        "start": 4048
      }
    ],
    "222": [
      {
        "length": 32,
        "start": 6070
      }
    ],
    "856": [
      {
        "length": 32,
        "start": 1531
      },
      {
        "length": 32,
        "start": 1733
      },
      {
        "length": 32,
        "start": 2834
      },
      {
        "length": 32,
        "start": 4899
      }
    ]
  },
  "source": "// SPDX-License-Identifier: GPL-3.0\npragma solidity ^0.8.0;\n\nimport \"@openzeppelin/contracts/token/ERC20/ERC20.sol\";\nimport \"@openzeppelin/contracts/token/ERC20/IERC20.sol\";\nimport \"@openzeppelin/contracts/token/ERC721/IERC721.sol\";\nimport \"@openzeppelin/contracts/token/ERC721/utils/ERC721Holder.sol\";\nimport \"@openzeppelin/contracts/utils/math/SafeMath.sol\";\nimport \"./Owned.sol\";\n\nstruct Entry {\n  bool exists;\n  uint index;\n}\n\ncontract DataProviderToken is ERC20, Owned {\n  uint256 private constant FEE = 5; // 5%\n  uint256 private constant RECORDS_PER_DATA_ACCESS_TOKEN = 1000;\n\n  IERC20 private immutable dataAccessToken;\n\n  address[] private holders;\n  mapping(address => Entry) holdersMap;\n  mapping(address => uint256) private unclaimedBalances;\n  uint256 private ownerUnclaimedBalance;\n\n  mapping(bytes => bool) usedSignatures;\n  address private immutable signer;\n\n  event Provided(\n    uint256 indexed timestamp,\n    address indexed provider,\n    uint256 recordCount\n  );\n\n  event Buy(\n    uint256 indexed timestamp,\n    address indexed buyer,\n    uint256 recordCount\n  );\n\n  event RewardClaimed(\n    uint256 indexed timestamp,\n    address indexed claimer,\n    uint256 amount\n  );\n\n  constructor(address dataAccessTokenAddress, address _signer) ERC20(\"DataProviderToken\", \"DPT\") {\n    dataAccessToken = IERC20(dataAccessTokenAddress);\n    signer = _signer;\n  }\n\n  function provide(uint256 recordCount, uint256 timestamp, bytes memory signature) external {\n    bool valid = validate(recordCount, timestamp, msg.sender, signature);\n    \n    require(valid, 'Signature not valid');\n    require(!usedSignatures[signature], 'Signature already claimed');\n\n    _mint(msg.sender, recordCount);\n\n    usedSignatures[signature] = true;\n\n    emit Provided(block.timestamp, msg.sender, recordCount);\n  }\n\n  function buy(uint256 recordCount) external {\n    require(recordCount > 0, \"Requests for positive number of records only\");\n    uint256 dataAccessTokenCount = \n        SafeMath.mul(SafeMath.div(recordCount, RECORDS_PER_DATA_ACCESS_TOKEN), 10**18);\n\n    require(dataAccessToken.balanceOf(msg.sender) >= dataAccessTokenCount, \"Balance not large enough\");\n    require(dataAccessToken.allowance(msg.sender, address(this)) >= dataAccessTokenCount, \"Allowance not large enough\");\n\n    dataAccessToken.transferFrom(msg.sender, address(this), dataAccessTokenCount); //lock in contract\n\n    uint256 rewardsToDistribute = \n      SafeMath.div(SafeMath.mul(dataAccessTokenCount, FEE), 100);\n    \n    uint256 rewardsDistributed = 0;\n\n    for (uint256 index = 0; index < holders.length; index++) {\n      address holder = holders[index];\n      require(balanceOf(holder) > 0, \"Holder array is not up to date\");\n      uint256 balance = balanceOf(holder);\n      uint256 rewardClaim =\n        SafeMath.div(SafeMath.mul(rewardsToDistribute, balance), totalSupply());\n      unclaimedBalances[holder] += rewardClaim;\n      rewardsDistributed += rewardClaim;\n    }\n\n    ownerUnclaimedBalance += SafeMath.sub(dataAccessTokenCount, rewardsDistributed);\n\n    emit Buy(block.timestamp, msg.sender, recordCount);\n  }\n\n  function claim() external {\n    require(unclaimedBalances[msg.sender] > 0, \"No unclaimed rent\");\n    uint256 claimAmount = unclaimedBalances[msg.sender];\n    unclaimedBalances[msg.sender] = 0;\n    dataAccessToken.transfer(msg.sender, claimAmount);\n\n    emit RewardClaimed(block.timestamp, msg.sender, claimAmount);\n  }\n\n  function claimOwner() external onlyAdmin {\n    dataAccessToken.transfer(admin, ownerUnclaimedBalance);\n\n    emit RewardClaimed(block.timestamp, msg.sender, ownerUnclaimedBalance);\n\n    ownerUnclaimedBalance = 0;\n  }\n\n  function showUnclaimed() external view returns (uint256) {\n    return unclaimedBalances[msg.sender];\n  }\n\n  function showUnclaimedOwner() external view onlyAdmin returns (uint256) {\n    return ownerUnclaimedBalance;\n  }\n\n  function _beforeTokenTransfer(address from, address to, uint256 amount) internal override {\n    if (balanceOf(from) == amount && from != address(0)) {\n      // not minting and sender has no balance left afterwards\n      bool foundTo = holdersMap[from].exists;\n      require(foundTo, \"Expecting holder to be present\");\n\n      deleteHolder(from);\n    }\n\n    if (to != address(0)) {\n      // not burning\n      bool foundTo = holdersMap[to].exists;\n      if (!foundTo) {\n        insertHolder(to);\n      }\n    }\n  }\n\n  function insertHolder(address holder) internal {\n    holders.push(holder);\n    holdersMap[holder].exists = true;\n    holdersMap[holder].index = holders.length - 1;\n  }\n\n  function deleteHolder(address holderToDelete) internal {\n    uint indexToDelete = holdersMap[holderToDelete].index;  \n\n    if (indexToDelete != holders.length - 1) {\n      address lastHolder = holders[holders.length - 1];\n      require(lastHolder != address(0), \"Expecting holder not to be the null address\");\n      holders[indexToDelete] = lastHolder;\n      holdersMap[lastHolder].index = indexToDelete;\n    }\n    holders.pop();\n    delete holdersMap[holderToDelete];\n  }\n\n  function validate(uint256 recordCount, uint256 timestamp, address sender, bytes memory signature) internal view returns (bool) {\n    bytes32 messageHash = getMessageHash(recordCount, timestamp, sender);\n    bytes32 ethSignedMessageHash = getEthSignedMessageHash(messageHash);\n\n    return recoverSigner(ethSignedMessageHash, signature) == signer;\n  }\n\n  function getMessageHash(uint256 recordCount, uint256 timestamp, address sender) internal pure returns (bytes32) {\n    return keccak256(abi.encodePacked(recordCount, timestamp, sender));\n  }\n\n  function getEthSignedMessageHash(bytes32 messageHash) internal pure returns (bytes32) {\n    return keccak256(abi.encodePacked(\"\\x19Ethereum Signed Message:\\n32\", messageHash));\n  }\n\n  function recoverSigner(bytes32 ethSignedMessageHash, bytes memory signature) internal pure returns (address) {\n    (bytes32 r, bytes32 s, uint8 v) = splitSignature(signature);\n\n    return ecrecover(ethSignedMessageHash, v, r, s);\n  }\n\n  function splitSignature(bytes memory signature) internal pure returns (bytes32 r, bytes32 s, uint8 v) {\n    require(signature.length == 65, \"Invalid signature length\");\n\n    assembly {\n      r := mload(add(signature, 32))\n      s := mload(add(signature, 64))\n      v := and(mload(add(signature, 65)), 255)\n    }\n    if (v < 27) v += 27;\n  }\n}",
  "sourcePath": "/Users/hagenschupp/Documents/Projekte/Ethereum/DataAccess/contract/contracts/DataProviderToken.sol",
  "compiler": {
    "name": "solc",
    "version": "0.8.6+commit.11564f7e.Emscripten.clang"
  },
  "schemaVersion": "3.3.4",
  "updatedAt": "2021-07-04T19:14:29.749Z",
  "networkType": "ethereum",
  "devdoc": {
    "kind": "dev",
    "methods": {
      "allowance(address,address)": {
        "details": "See {IERC20-allowance}."
      },
      "approve(address,uint256)": {
        "details": "See {IERC20-approve}. Requirements: - `spender` cannot be the zero address."
      },
      "balanceOf(address)": {
        "details": "See {IERC20-balanceOf}."
      },
      "decimals()": {
        "details": "Returns the number of decimals used to get its user representation. For example, if `decimals` equals `2`, a balance of `505` tokens should be displayed to a user as `5,05` (`505 / 10 ** 2`). Tokens usually opt for a value of 18, imitating the relationship between Ether and Wei. This is the value {ERC20} uses, unless this function is overloaded; NOTE: This information is only used for _display_ purposes: it in no way affects any of the arithmetic of the contract, including {IERC20-balanceOf} and {IERC20-transfer}."
      },
      "decreaseAllowance(address,uint256)": {
        "details": "Atomically decreases the allowance granted to `spender` by the caller. This is an alternative to {approve} that can be used as a mitigation for problems described in {IERC20-approve}. Emits an {Approval} event indicating the updated allowance. Requirements: - `spender` cannot be the zero address. - `spender` must have allowance for the caller of at least `subtractedValue`."
      },
      "increaseAllowance(address,uint256)": {
        "details": "Atomically increases the allowance granted to `spender` by the caller. This is an alternative to {approve} that can be used as a mitigation for problems described in {IERC20-approve}. Emits an {Approval} event indicating the updated allowance. Requirements: - `spender` cannot be the zero address."
      },
      "name()": {
        "details": "Returns the name of the token."
      },
      "symbol()": {
        "details": "Returns the symbol of the token, usually a shorter version of the name."
      },
      "totalSupply()": {
        "details": "See {IERC20-totalSupply}."
      },
      "transfer(address,uint256)": {
        "details": "See {IERC20-transfer}. Requirements: - `recipient` cannot be the zero address. - the caller must have a balance of at least `amount`."
      },
      "transferFrom(address,address,uint256)": {
        "details": "See {IERC20-transferFrom}. Emits an {Approval} event indicating the updated allowance. This is not required by the EIP. See the note at the beginning of {ERC20}. Requirements: - `sender` and `recipient` cannot be the zero address. - `sender` must have a balance of at least `amount`. - the caller must have allowance for ``sender``'s tokens of at least `amount`."
      }
    },
    "version": 1
  },
  "userdoc": {
    "kind": "user",
    "methods": {},
    "version": 1
  }
}