{
  "contractName": "DataAccessToken",
  "abi": [
    {
      "inputs": [
        {
          "internalType": "address",
          "name": "usdcAddress",
          "type": "address"
        }
      ],
      "stateMutability": "nonpayable",
      "type": "constructor"
    },
    {
      "anonymous": false,
      "inputs": [
        {
          "indexed": true,
          "internalType": "address",
          "name": "owner",
          "type": "address"
        },
        {
          "indexed": true,
          "internalType": "address",
          "name": "spender",
          "type": "address"
        },
        {
          "indexed": false,
          "internalType": "uint256",
          "name": "value",
          "type": "uint256"
        }
      ],
      "name": "Approval",
      "type": "event"
    },
    {
      "anonymous": false,
      "inputs": [
        {
          "indexed": true,
          "internalType": "uint256",
          "name": "timestamp",
          "type": "uint256"
        },
        {
          "indexed": true,
          "internalType": "address",
          "name": "targetAddress",
          "type": "address"
        },
        {
          "indexed": false,
          "internalType": "uint256",
          "name": "usdcAmount",
          "type": "uint256"
        },
        {
          "indexed": false,
          "internalType": "uint256",
          "name": "dataAccessTokenCount",
          "type": "uint256"
        }
      ],
      "name": "Burn",
      "type": "event"
    },
    {
      "anonymous": false,
      "inputs": [
        {
          "indexed": true,
          "internalType": "uint256",
          "name": "timestamp",
          "type": "uint256"
        },
        {
          "indexed": true,
          "internalType": "address",
          "name": "targetAddress",
          "type": "address"
        },
        {
          "indexed": false,
          "internalType": "uint256",
          "name": "usdcAmount",
          "type": "uint256"
        },
        {
          "indexed": false,
          "internalType": "uint256",
          "name": "dataAccessTokenCount",
          "type": "uint256"
        }
      ],
      "name": "Mint",
      "type": "event"
    },
    {
      "anonymous": false,
      "inputs": [
        {
          "indexed": true,
          "internalType": "address",
          "name": "from",
          "type": "address"
        },
        {
          "indexed": true,
          "internalType": "address",
          "name": "to",
          "type": "address"
        },
        {
          "indexed": false,
          "internalType": "uint256",
          "name": "value",
          "type": "uint256"
        }
      ],
      "name": "Transfer",
      "type": "event"
    },
    {
      "inputs": [
        {
          "internalType": "address",
          "name": "owner",
          "type": "address"
        },
        {
          "internalType": "address",
          "name": "spender",
          "type": "address"
        }
      ],
      "name": "allowance",
      "outputs": [
        {
          "internalType": "uint256",
          "name": "",
          "type": "uint256"
        }
      ],
      "stateMutability": "view",
      "type": "function",
      "constant": true
    },
    {
      "inputs": [
        {
          "internalType": "address",
          "name": "spender",
          "type": "address"
        },
        {
          "internalType": "uint256",
          "name": "amount",
          "type": "uint256"
        }
      ],
      "name": "approve",
      "outputs": [
        {
          "internalType": "bool",
          "name": "",
          "type": "bool"
        }
      ],
      "stateMutability": "nonpayable",
      "type": "function"
    },
    {
      "inputs": [
        {
          "internalType": "address",
          "name": "account",
          "type": "address"
        }
      ],
      "name": "balanceOf",
      "outputs": [
        {
          "internalType": "uint256",
          "name": "",
          "type": "uint256"
        }
      ],
      "stateMutability": "view",
      "type": "function",
      "constant": true
    },
    {
      "inputs": [],
      "name": "decimals",
      "outputs": [
        {
          "internalType": "uint8",
          "name": "",
          "type": "uint8"
        }
      ],
      "stateMutability": "view",
      "type": "function",
      "constant": true
    },
    {
      "inputs": [
        {
          "internalType": "address",
          "name": "spender",
          "type": "address"
        },
        {
          "internalType": "uint256",
          "name": "subtractedValue",
          "type": "uint256"
        }
      ],
      "name": "decreaseAllowance",
      "outputs": [
        {
          "internalType": "bool",
          "name": "",
          "type": "bool"
        }
      ],
      "stateMutability": "nonpayable",
      "type": "function"
    },
    {
      "inputs": [
        {
          "internalType": "address",
          "name": "spender",
          "type": "address"
        },
        {
          "internalType": "uint256",
          "name": "addedValue",
          "type": "uint256"
        }
      ],
      "name": "increaseAllowance",
      "outputs": [
        {
          "internalType": "bool",
          "name": "",
          "type": "bool"
        }
      ],
      "stateMutability": "nonpayable",
      "type": "function"
    },
    {
      "inputs": [],
      "name": "name",
      "outputs": [
        {
          "internalType": "string",
          "name": "",
          "type": "string"
        }
      ],
      "stateMutability": "view",
      "type": "function",
      "constant": true
    },
    {
      "inputs": [],
      "name": "symbol",
      "outputs": [
        {
          "internalType": "string",
          "name": "",
          "type": "string"
        }
      ],
      "stateMutability": "view",
      "type": "function",
      "constant": true
    },
    {
      "inputs": [],
      "name": "totalSupply",
      "outputs": [
        {
          "internalType": "uint256",
          "name": "",
          "type": "uint256"
        }
      ],
      "stateMutability": "view",
      "type": "function",
      "constant": true
    },
    {
      "inputs": [
        {
          "internalType": "address",
          "name": "recipient",
          "type": "address"
        },
        {
          "internalType": "uint256",
          "name": "amount",
          "type": "uint256"
        }
      ],
      "name": "transfer",
      "outputs": [
        {
          "internalType": "bool",
          "name": "",
          "type": "bool"
        }
      ],
      "stateMutability": "nonpayable",
      "type": "function"
    },
    {
      "inputs": [
        {
          "internalType": "address",
          "name": "sender",
          "type": "address"
        },
        {
          "internalType": "address",
          "name": "recipient",
          "type": "address"
        },
        {
          "internalType": "uint256",
          "name": "amount",
          "type": "uint256"
        }
      ],
      "name": "transferFrom",
      "outputs": [
        {
          "internalType": "bool",
          "name": "",
          "type": "bool"
        }
      ],
      "stateMutability": "nonpayable",
      "type": "function"
    },
    {
      "inputs": [],
      "name": "usdc",
      "outputs": [
        {
          "internalType": "contract IERC20",
          "name": "",
          "type": "address"
        }
      ],
      "stateMutability": "view",
      "type": "function",
      "constant": true
    },
    {
      "inputs": [
        {
          "internalType": "uint256",
          "name": "dataAccessTokenCount",
          "type": "uint256"
        }
      ],
      "name": "mint",
      "outputs": [],
      "stateMutability": "nonpayable",
      "type": "function"
    },
    {
      "inputs": [
        {
          "internalType": "uint256",
          "name": "dataAccessTokenCount",
          "type": "uint256"
        }
      ],
      "name": "burn",
      "outputs": [],
      "stateMutability": "nonpayable",
      "type": "function"
    }
  ],
  "bytecode": "0x60a06040523480156200001157600080fd5b506040516200241e3803806200241e8339818101604052810190620000379190620001dc565b6040518060400160405280601181526020017f446174612041636365737320546f6b656e0000000000000000000000000000008152506040518060400160405280600381526020017f44415400000000000000000000000000000000000000000000000000000000008152508160039080519060200190620000bb92919062000115565b508060049080519060200190620000d492919062000115565b5050508073ffffffffffffffffffffffffffffffffffffffff1660808173ffffffffffffffffffffffffffffffffffffffff1660601b8152505050620002c6565b828054620001239062000242565b90600052602060002090601f01602090048101928262000147576000855562000193565b82601f106200016257805160ff191683800117855562000193565b8280016001018555821562000193579182015b828111156200019257825182559160200191906001019062000175565b5b509050620001a29190620001a6565b5090565b5b80821115620001c1576000816000905550600101620001a7565b5090565b600081519050620001d681620002ac565b92915050565b600060208284031215620001f557620001f4620002a7565b5b60006200020584828501620001c5565b91505092915050565b60006200021b8262000222565b9050919050565b600073ffffffffffffffffffffffffffffffffffffffff82169050919050565b600060028204905060018216806200025b57607f821691505b6020821081141562000272576200027162000278565b5b50919050565b7f4e487b7100000000000000000000000000000000000000000000000000000000600052602260045260246000fd5b600080fd5b620002b7816200020e565b8114620002c357600080fd5b50565b60805160601c61212b620002f36000396000818161057f015281816105fd01526108be015261212b6000f3fe608060405234801561001057600080fd5b50600436106100ea5760003560e01c806342966c681161008c578063a0712d6811610066578063a0712d6814610261578063a457c2d71461027d578063a9059cbb146102ad578063dd62ed3e146102dd576100ea565b806342966c68146101f757806370a082311461021357806395d89b4114610243576100ea565b806323b872dd116100c857806323b872dd1461015b578063313ce5671461018b57806339509351146101a95780633e413bee146101d9576100ea565b806306fdde03146100ef578063095ea7b31461010d57806318160ddd1461013d575b600080fd5b6100f761030d565b60405161010491906117dd565b60405180910390f35b6101276004803603810190610122919061143f565b61039f565b60405161013491906117a7565b60405180910390f35b6101456103bd565b60405161015291906119bf565b60405180910390f35b610175600480360381019061017091906113ec565b6103c7565b60405161018291906117a7565b60405180910390f35b6101936104c8565b6040516101a09190611a03565b60405180910390f35b6101c360048036038101906101be919061143f565b6104d1565b6040516101d091906117a7565b60405180910390f35b6101e161057d565b6040516101ee91906117c2565b60405180910390f35b610211600480360381019061020c91906114ac565b6105a1565b005b61022d6004803603810190610228919061137f565b6106fe565b60405161023a91906119bf565b60405180910390f35b61024b610746565b60405161025891906117dd565b60405180910390f35b61027b600480360381019061027691906114ac565b6107d8565b005b6102976004803603810190610292919061143f565b6109cb565b6040516102a491906117a7565b60405180910390f35b6102c760048036038101906102c2919061143f565b610abf565b6040516102d491906117a7565b60405180910390f35b6102f760048036038101906102f291906113ac565b610add565b60405161030491906119bf565b60405180910390f35b60606003805461031c90611bfb565b80601f016020809104026020016040519081016040528092919081815260200182805461034890611bfb565b80156103955780601f1061036a57610100808354040283529160200191610395565b820191906000526020600020905b81548152906001019060200180831161037857829003601f168201915b5050505050905090565b60006103b36103ac610b64565b8484610b6c565b6001905092915050565b6000600254905090565b60006103d4848484610d37565b6000600160008673ffffffffffffffffffffffffffffffffffffffff1673ffffffffffffffffffffffffffffffffffffffff168152602001908152602001600020600061041f610b64565b73ffffffffffffffffffffffffffffffffffffffff1673ffffffffffffffffffffffffffffffffffffffff1681526020019081526020016000205490508281101561049f576040517f08c379a0000000000000000000000000000000000000000000000000000000008152600401610496906118ff565b60405180910390fd5b6104bc856104ab610b64565b85846104b79190611b1b565b610b6c565b60019150509392505050565b60006012905090565b60006105736104de610b64565b8484600160006104ec610b64565b73ffffffffffffffffffffffffffffffffffffffff1673ffffffffffffffffffffffffffffffffffffffff16815260200190815260200160002060008873ffffffffffffffffffffffffffffffffffffffff1673ffffffffffffffffffffffffffffffffffffffff1681526020019081526020016000205461056e9190611a3a565b610b6c565b6001905092915050565b7f000000000000000000000000000000000000000000000000000000000000000081565b600081116105e4576040517f08c379a00000000000000000000000000000000000000000000000000000000081526004016105db906118df565b60405180910390fd5b6105ee3382610fb6565b60006105f98261118a565b90507f000000000000000000000000000000000000000000000000000000000000000073ffffffffffffffffffffffffffffffffffffffff1663a9059cbb33836040518363ffffffff1660e01b815260040161065692919061177e565b602060405180830381600087803b15801561067057600080fd5b505af1158015610684573d6000803e3d6000fd5b505050506040513d601f19601f820116820180604052508101906106a8919061147f565b503373ffffffffffffffffffffffffffffffffffffffff16427f4e4e7dc5d558587dbc7044256533c305866ab3fdbabbfc0781c499cce700f51783856040516106f29291906119da565b60405180910390a35050565b60008060008373ffffffffffffffffffffffffffffffffffffffff1673ffffffffffffffffffffffffffffffffffffffff168152602001908152602001600020549050919050565b60606004805461075590611bfb565b80601f016020809104026020016040519081016040528092919081815260200182805461078190611bfb565b80156107ce5780601f106107a3576101008083540402835291602001916107ce565b820191906000526020600020905b8154815290600101906020018083116107b157829003601f168201915b5050505050905090565b6000811161081b576040517f08c379a00000000000000000000000000000000000000000000000000000000081526004016108129061189f565b60405180910390fd5b60006108268261118a565b90506108376103e8620f42406111bb565b811115610879576040517f08c379a00000000000000000000000000000000000000000000000000000000081526004016108709061185f565b60405180910390fd5b600081116108bc576040517f08c379a00000000000000000000000000000000000000000000000000000000081526004016108b3906118bf565b60405180910390fd5b7f000000000000000000000000000000000000000000000000000000000000000073ffffffffffffffffffffffffffffffffffffffff166323b872dd3330846040518463ffffffff1660e01b815260040161091993929190611747565b602060405180830381600087803b15801561093357600080fd5b505af1158015610947573d6000803e3d6000fd5b505050506040513d601f19601f8201168201806040525081019061096b919061147f565b5061097633836111d1565b3373ffffffffffffffffffffffffffffffffffffffff16427f5a3e96f397e68b20a43c25f664b628805b877334dadfcc925c6c1a3ad434045883856040516109bf9291906119da565b60405180910390a35050565b600080600160006109da610b64565b73ffffffffffffffffffffffffffffffffffffffff1673ffffffffffffffffffffffffffffffffffffffff16815260200190815260200160002060008573ffffffffffffffffffffffffffffffffffffffff1673ffffffffffffffffffffffffffffffffffffffff16815260200190815260200160002054905082811015610a97576040517f08c379a0000000000000000000000000000000000000000000000000000000008152600401610a8e9061197f565b60405180910390fd5b610ab4610aa2610b64565b858584610aaf9190611b1b565b610b6c565b600191505092915050565b6000610ad3610acc610b64565b8484610d37565b6001905092915050565b6000600160008473ffffffffffffffffffffffffffffffffffffffff1673ffffffffffffffffffffffffffffffffffffffff16815260200190815260200160002060008373ffffffffffffffffffffffffffffffffffffffff1673ffffffffffffffffffffffffffffffffffffffff16815260200190815260200160002054905092915050565b600033905090565b600073ffffffffffffffffffffffffffffffffffffffff168373ffffffffffffffffffffffffffffffffffffffff161415610bdc576040517f08c379a0000000000000000000000000000000000000000000000000000000008152600401610bd39061195f565b60405180910390fd5b600073ffffffffffffffffffffffffffffffffffffffff168273ffffffffffffffffffffffffffffffffffffffff161415610c4c576040517f08c379a0000000000000000000000000000000000000000000000000000000008152600401610c439061183f565b60405180910390fd5b80600160008573ffffffffffffffffffffffffffffffffffffffff1673ffffffffffffffffffffffffffffffffffffffff16815260200190815260200160002060008473ffffffffffffffffffffffffffffffffffffffff1673ffffffffffffffffffffffffffffffffffffffff168152602001908152602001600020819055508173ffffffffffffffffffffffffffffffffffffffff168373ffffffffffffffffffffffffffffffffffffffff167f8c5be1e5ebec7d5bd14f71427d1e84f3dd0314c0f7b2291e5b200ac8c7c3b92583604051610d2a91906119bf565b60405180910390a3505050565b600073ffffffffffffffffffffffffffffffffffffffff168373ffffffffffffffffffffffffffffffffffffffff161415610da7576040517f08c379a0000000000000000000000000000000000000000000000000000000008152600401610d9e9061193f565b60405180910390fd5b600073ffffffffffffffffffffffffffffffffffffffff168273ffffffffffffffffffffffffffffffffffffffff161415610e17576040517f08c379a0000000000000000000000000000000000000000000000000000000008152600401610e0e906117ff565b60405180910390fd5b610e22838383611325565b60008060008573ffffffffffffffffffffffffffffffffffffffff1673ffffffffffffffffffffffffffffffffffffffff16815260200190815260200160002054905081811015610ea8576040517f08c379a0000000000000000000000000000000000000000000000000000000008152600401610e9f9061187f565b60405180910390fd5b8181610eb49190611b1b565b6000808673ffffffffffffffffffffffffffffffffffffffff1673ffffffffffffffffffffffffffffffffffffffff16815260200190815260200160002081905550816000808573ffffffffffffffffffffffffffffffffffffffff1673ffffffffffffffffffffffffffffffffffffffff1681526020019081526020016000206000828254610f449190611a3a565b925050819055508273ffffffffffffffffffffffffffffffffffffffff168473ffffffffffffffffffffffffffffffffffffffff167fddf252ad1be2c89b69c2b068fc378daa952ba7f163c4a11628f55a4df523b3ef84604051610fa891906119bf565b60405180910390a350505050565b600073ffffffffffffffffffffffffffffffffffffffff168273ffffffffffffffffffffffffffffffffffffffff161415611026576040517f08c379a000000000000000000000000000000000000000000000000000000000815260040161101d9061191f565b60405180910390fd5b61103282600083611325565b60008060008473ffffffffffffffffffffffffffffffffffffffff1673ffffffffffffffffffffffffffffffffffffffff168152602001908152602001600020549050818110156110b8576040517f08c379a00000000000000000000000000000000000000000000000000000000081526004016110af9061181f565b60405180910390fd5b81816110c49190611b1b565b6000808573ffffffffffffffffffffffffffffffffffffffff1673ffffffffffffffffffffffffffffffffffffffff1681526020019081526020016000208190555081600260008282546111189190611b1b565b92505081905550600073ffffffffffffffffffffffffffffffffffffffff168373ffffffffffffffffffffffffffffffffffffffff167fddf252ad1be2c89b69c2b068fc378daa952ba7f163c4a11628f55a4df523b3ef8460405161117d91906119bf565b60405180910390a3505050565b60006111b46111a661119f84620f42406111bb565b60016111bb565b670de0b6b3a764000061132a565b9050919050565b600081836111c99190611ac1565b905092915050565b600073ffffffffffffffffffffffffffffffffffffffff168273ffffffffffffffffffffffffffffffffffffffff161415611241576040517f08c379a00000000000000000000000000000000000000000000000000000000081526004016112389061199f565b60405180910390fd5b61124d60008383611325565b806002600082825461125f9190611a3a565b92505081905550806000808473ffffffffffffffffffffffffffffffffffffffff1673ffffffffffffffffffffffffffffffffffffffff16815260200190815260200160002060008282546112b49190611a3a565b925050819055508173ffffffffffffffffffffffffffffffffffffffff16600073ffffffffffffffffffffffffffffffffffffffff167fddf252ad1be2c89b69c2b068fc378daa952ba7f163c4a11628f55a4df523b3ef8360405161131991906119bf565b60405180910390a35050565b505050565b600081836113389190611a90565b905092915050565b60008135905061134f816120b0565b92915050565b600081519050611364816120c7565b92915050565b600081359050611379816120de565b92915050565b60006020828403121561139557611394611cba565b5b60006113a384828501611340565b91505092915050565b600080604083850312156113c3576113c2611cba565b5b60006113d185828601611340565b92505060206113e285828601611340565b9150509250929050565b60008060006060848603121561140557611404611cba565b5b600061141386828701611340565b935050602061142486828701611340565b92505060406114358682870161136a565b9150509250925092565b6000806040838503121561145657611455611cba565b5b600061146485828601611340565b92505060206114758582860161136a565b9150509250929050565b60006020828403121561149557611494611cba565b5b60006114a384828501611355565b91505092915050565b6000602082840312156114c2576114c1611cba565b5b60006114d08482850161136a565b91505092915050565b6114e281611b4f565b82525050565b6114f181611b61565b82525050565b61150081611ba4565b82525050565b600061151182611a1e565b61151b8185611a29565b935061152b818560208601611bc8565b61153481611cbf565b840191505092915050565b600061154c602383611a29565b915061155782611cd0565b604082019050919050565b600061156f602283611a29565b915061157a82611d1f565b604082019050919050565b6000611592602283611a29565b915061159d82611d6e565b604082019050919050565b60006115b5602283611a29565b91506115c082611dbd565b604082019050919050565b60006115d8602683611a29565b91506115e382611e0c565b604082019050919050565b60006115fb601c83611a29565b915061160682611e5b565b602082019050919050565b600061161e602b83611a29565b915061162982611e84565b604082019050919050565b6000611641601f83611a29565b915061164c82611ed3565b602082019050919050565b6000611664602883611a29565b915061166f82611efc565b604082019050919050565b6000611687602183611a29565b915061169282611f4b565b604082019050919050565b60006116aa602583611a29565b91506116b582611f9a565b604082019050919050565b60006116cd602483611a29565b91506116d882611fe9565b604082019050919050565b60006116f0602583611a29565b91506116fb82612038565b604082019050919050565b6000611713601f83611a29565b915061171e82612087565b602082019050919050565b61173281611b8d565b82525050565b61174181611b97565b82525050565b600060608201905061175c60008301866114d9565b61176960208301856114d9565b6117766040830184611729565b949350505050565b600060408201905061179360008301856114d9565b6117a06020830184611729565b9392505050565b60006020820190506117bc60008301846114e8565b92915050565b60006020820190506117d760008301846114f7565b92915050565b600060208201905081810360008301526117f78184611506565b905092915050565b600060208201905081810360008301526118188161153f565b9050919050565b6000602082019050818103600083015261183881611562565b9050919050565b6000602082019050818103600083015261185881611585565b9050919050565b60006020820190508181036000830152611878816115a8565b9050919050565b60006020820190508181036000830152611898816115cb565b9050919050565b600060208201905081810360008301526118b8816115ee565b9050919050565b600060208201905081810360008301526118d881611611565b9050919050565b600060208201905081810360008301526118f881611634565b9050919050565b6000602082019050818103600083015261191881611657565b9050919050565b600060208201905081810360008301526119388161167a565b9050919050565b600060208201905081810360008301526119588161169d565b9050919050565b60006020820190508181036000830152611978816116c0565b9050919050565b60006020820190508181036000830152611998816116e3565b9050919050565b600060208201905081810360008301526119b881611706565b9050919050565b60006020820190506119d46000830184611729565b92915050565b60006040820190506119ef6000830185611729565b6119fc6020830184611729565b9392505050565b6000602082019050611a186000830184611738565b92915050565b600081519050919050565b600082825260208201905092915050565b6000611a4582611b8d565b9150611a5083611b8d565b9250827fffffffffffffffffffffffffffffffffffffffffffffffffffffffffffffffff03821115611a8557611a84611c2d565b5b828201905092915050565b6000611a9b82611b8d565b9150611aa683611b8d565b925082611ab657611ab5611c5c565b5b828204905092915050565b6000611acc82611b8d565b9150611ad783611b8d565b9250817fffffffffffffffffffffffffffffffffffffffffffffffffffffffffffffffff0483118215151615611b1057611b0f611c2d565b5b828202905092915050565b6000611b2682611b8d565b9150611b3183611b8d565b925082821015611b4457611b43611c2d565b5b828203905092915050565b6000611b5a82611b6d565b9050919050565b60008115159050919050565b600073ffffffffffffffffffffffffffffffffffffffff82169050919050565b6000819050919050565b600060ff82169050919050565b6000611baf82611bb6565b9050919050565b6000611bc182611b6d565b9050919050565b60005b83811015611be6578082015181840152602081019050611bcb565b83811115611bf5576000848401525b50505050565b60006002820490506001821680611c1357607f821691505b60208210811415611c2757611c26611c8b565b5b50919050565b7f4e487b7100000000000000000000000000000000000000000000000000000000600052601160045260246000fd5b7f4e487b7100000000000000000000000000000000000000000000000000000000600052601260045260246000fd5b7f4e487b7100000000000000000000000000000000000000000000000000000000600052602260045260246000fd5b600080fd5b6000601f19601f8301169050919050565b7f45524332303a207472616e7366657220746f20746865207a65726f206164647260008201527f6573730000000000000000000000000000000000000000000000000000000000602082015250565b7f45524332303a206275726e20616d6f756e7420657863656564732062616c616e60008201527f6365000000000000000000000000000000000000000000000000000000000000602082015250565b7f45524332303a20617070726f766520746f20746865207a65726f20616464726560008201527f7373000000000000000000000000000000000000000000000000000000000000602082015250565b7f4174206d6f7374203130303020555344432063616e2062652065786368616e6760008201527f6564000000000000000000000000000000000000000000000000000000000000602082015250565b7f45524332303a207472616e7366657220616d6f756e742065786365656473206260008201527f616c616e63650000000000000000000000000000000000000000000000000000602082015250565b7f506f73697469766520746f6b656e207265717565737473206f6e6c7900000000600082015250565b7f4174206c6561737420302e3030303030312055534443206e65656420746f206260008201527f652065786368616e676564000000000000000000000000000000000000000000602082015250565b7f506f73697469766520746f6b656e207769746864726177616c73206f6e6c7900600082015250565b7f45524332303a207472616e7366657220616d6f756e742065786365656473206160008201527f6c6c6f77616e6365000000000000000000000000000000000000000000000000602082015250565b7f45524332303a206275726e2066726f6d20746865207a65726f2061646472657360008201527f7300000000000000000000000000000000000000000000000000000000000000602082015250565b7f45524332303a207472616e736665722066726f6d20746865207a65726f20616460008201527f6472657373000000000000000000000000000000000000000000000000000000602082015250565b7f45524332303a20617070726f76652066726f6d20746865207a65726f2061646460008201527f7265737300000000000000000000000000000000000000000000000000000000602082015250565b7f45524332303a2064656372656173656420616c6c6f77616e63652062656c6f7760008201527f207a65726f000000000000000000000000000000000000000000000000000000602082015250565b7f45524332303a206d696e7420746f20746865207a65726f206164647265737300600082015250565b6120b981611b4f565b81146120c457600080fd5b50565b6120d081611b61565b81146120db57600080fd5b50565b6120e781611b8d565b81146120f257600080fd5b5056fea2646970667358221220336f3ab666125db4bd1dd58a0dc31a694f41a3aaecdc9a608a8f5e06df0f93e064736f6c63430008060033",
  "immutableReferences": {
    "8": [
      {
        "length": 32,
        "start": 1407
      },
      {
        "length": 32,
        "start": 1533
      },
      {
        "length": 32,
        "start": 2238
      }
    ]
  },
  "source": "// SPDX-License-Identifier: MIT\npragma solidity ^0.8.0;\n\nimport \"@openzeppelin/contracts/token/ERC20/ERC20.sol\";\nimport \"@openzeppelin/contracts/utils/math/SafeMath.sol\";\n\ncontract DataAccessToken is ERC20 {\n  IERC20 public immutable usdc;\n  uint private constant CONVERSION_FACTOR = 1; // 1 USDC = 1*(10**18) DataAccessToken, price: 1 token per 1000 records\n  uint private constant USDC_DECIMALS = 10**6;\n  uint private constant TOKEN_DECIMALS = 10**18;\n\n  event Mint (\n    uint256 indexed timestamp,\n    address indexed targetAddress,\n    uint256 usdcAmount,\n    uint256 dataAccessTokenCount\n  );\n\n  event Burn (\n    uint256 indexed timestamp,\n    address indexed targetAddress,\n    uint256 usdcAmount,\n    uint256 dataAccessTokenCount\n  );\n\n  constructor(address usdcAddress) ERC20('Data Access Token', 'DAT') {\n    usdc = IERC20(usdcAddress);\n  }\n\n  function mint(uint dataAccessTokenCount) external {\n    require(dataAccessTokenCount > 0, 'Positive token requests only');\n    uint usdcAmount = convertToUsdc(dataAccessTokenCount);\n    require(usdcAmount <= SafeMath.mul(1000, USDC_DECIMALS), 'At most 1000 USDC can be exchanged');\n    require(usdcAmount > 0, 'At least 0.000001 USDC need to be exchanged');\n    usdc.transferFrom(msg.sender, address(this), usdcAmount); // lock USDC in this contract\n    _mint(msg.sender, dataAccessTokenCount);\n    emit Mint(block.timestamp, msg.sender, usdcAmount, dataAccessTokenCount);\n  }\n\n  function burn(uint dataAccessTokenCount) external {\n    require(dataAccessTokenCount > 0, 'Positive token withdrawals only');\n    _burn(msg.sender, dataAccessTokenCount);\n    uint usdcAmount = convertToUsdc(dataAccessTokenCount);\n    usdc.transfer(msg.sender, usdcAmount);\n    emit Burn(block.timestamp, msg.sender, usdcAmount, dataAccessTokenCount);\n  }\n\n  function convertToUsdc(uint dataAccessTokenCount) internal pure returns (uint256) {\n    // dataAccessTokenCount (x * factor * 10^6) / 10**18\n    return \n        SafeMath.div(\n          SafeMath.mul(\n            SafeMath.mul(dataAccessTokenCount, USDC_DECIMALS),\n            CONVERSION_FACTOR), \n          TOKEN_DECIMALS);\n  }\n}",
  "sourcePath": "/Users/hagenschupp/Documents/Projekte/Ethereum/DataAccess/contract/contracts/DataAccessToken.sol",
  "compiler": {
    "name": "solc",
    "version": "0.8.6+commit.11564f7e.Emscripten.clang"
  },
  "schemaVersion": "3.3.4",
  "updatedAt": "2021-07-07T16:28:13.114Z",
  "networkType": "ethereum",
  "devdoc": {
    "kind": "dev",
    "methods": {
      "allowance(address,address)": {
        "details": "See {IERC20-allowance}."
      },
      "approve(address,uint256)": {
        "details": "See {IERC20-approve}. Requirements: - `spender` cannot be the zero address."
      },
      "balanceOf(address)": {
        "details": "See {IERC20-balanceOf}."
      },
      "decimals()": {
        "details": "Returns the number of decimals used to get its user representation. For example, if `decimals` equals `2`, a balance of `505` tokens should be displayed to a user as `5,05` (`505 / 10 ** 2`). Tokens usually opt for a value of 18, imitating the relationship between Ether and Wei. This is the value {ERC20} uses, unless this function is overloaded; NOTE: This information is only used for _display_ purposes: it in no way affects any of the arithmetic of the contract, including {IERC20-balanceOf} and {IERC20-transfer}."
      },
      "decreaseAllowance(address,uint256)": {
        "details": "Atomically decreases the allowance granted to `spender` by the caller. This is an alternative to {approve} that can be used as a mitigation for problems described in {IERC20-approve}. Emits an {Approval} event indicating the updated allowance. Requirements: - `spender` cannot be the zero address. - `spender` must have allowance for the caller of at least `subtractedValue`."
      },
      "increaseAllowance(address,uint256)": {
        "details": "Atomically increases the allowance granted to `spender` by the caller. This is an alternative to {approve} that can be used as a mitigation for problems described in {IERC20-approve}. Emits an {Approval} event indicating the updated allowance. Requirements: - `spender` cannot be the zero address."
      },
      "name()": {
        "details": "Returns the name of the token."
      },
      "symbol()": {
        "details": "Returns the symbol of the token, usually a shorter version of the name."
      },
      "totalSupply()": {
        "details": "See {IERC20-totalSupply}."
      },
      "transfer(address,uint256)": {
        "details": "See {IERC20-transfer}. Requirements: - `recipient` cannot be the zero address. - the caller must have a balance of at least `amount`."
      },
      "transferFrom(address,address,uint256)": {
        "details": "See {IERC20-transferFrom}. Emits an {Approval} event indicating the updated allowance. This is not required by the EIP. See the note at the beginning of {ERC20}. Requirements: - `sender` and `recipient` cannot be the zero address. - `sender` must have a balance of at least `amount`. - the caller must have allowance for ``sender``'s tokens of at least `amount`."
      }
    },
    "version": 1
  },
  "userdoc": {
    "kind": "user",
    "methods": {},
    "version": 1
  }
}